:020000022000DC
:10600000000004205D620200B5620200B762020077
:10601000B9620200BB620200BD6202000000000023
:10602000000000000000000000000000BF6202004D
:10603000C162020000000000C3620200C5620200EB
:10604000C5C30200CB62020055D10200CF6202003C
:10605000D1620200D36202006DCE020099ED02000F
:10606000D9620200DB620200DD620200DF62020030
:10607000E1620200E3620200E5620200E762020000
:10608000E962020099870200ED620200EF620200FD
:10609000D9870200F3620200A1400300F762020008
:1060A000F9620200FB620200FD620200FF62020070
:1060B0000163020003630200C7620200C7620200BC
:1060C0000563020007630200096302000B6302001C
:1060D0000D6302000F6302001163020013630200EC
:1060E000156302001763020019630200C762020011
:1060F000C76202001D630200C76202001B63020048
:10610000354936480A1A02D0072291438D46344950
:1061100034480A1A06D00722914381F309880222E3
:1061200082F3148830483149314A00F044F831484C
:106130003149324A00F03FF831483249324A00F0E2
:106140003AF832483249334A00F035F83248334998
:10615000334A00F030F833483349344A00F02BF822
:1061600033483449344A00F026F834483449002290
:1061700000F02CF833483449002200F027F8334867
:106180003349091A082902DB002202604160314AC2
:1061900090471F481F49884205D00268043003B465
:1061A000904703BCF7E700208646EC46002000211C
:1061B000294A9047FEE7884207D0521A05D0037853
:1061C00001300B700131013AF9D17047884202D099
:1061D00002700130FAE770470000042000E003205D
:1061E00000000420000004206C7403008C220020B6
:1061F000382300202063020020630200B85203000D
:106200006C7403008C2200208C2200204454030074
:106210004454030044540300445403004454030012
:106220004454030044540300445403006B740300BB
:10623000187503003823002038230020382300205D
:1062400018310020183100201831002018310020AA
:106250001851002081620200D50903000F484FF059
:106260000701884385460E4880470E48016841F47F
:1062700070010160BFF34F8FBFF36F8FFFF740BF17
:1062800009480A490A4A884207D0521A05D00378B9
:1062900001300B700131013AF9D170470000042040
:1062A000DDB4020088ED00E0E85303003022002056
:1062B0008C220020FEE7FEE7FEE7FEE7FEE7FEE7B2
:1062C000FEE7FEE7FEE7FEE7FEE7FEE7FEE7FEE7A6
:1062D000FEE7FEE7FEE7FEE7FEE7FEE7FEE7FEE796
:1062E000FEE7FEE7FEE7FEE7FEE7FEE7FEE7FEE786
:1062F000FEE7FEE7FEE7FEE7FEE7FEE7FEE7FEE776
:10630000FEE7FEE7FEE7FEE7FEE7FEE7FEE7FEE765
:10631000FEE7FEE7FEE7FEE7FEE7FEE7FEE700BF7B
:1063200000B585B00190019B002B0AD0074B43F0CC
:1063300001030393019B9B010293039B02989847DF
:1063400000E000BF05B05DF804FB00BF505403003F
:1063500000B583B00190019B002B0AD04FF47A70F6
:10636000FFF7DEFF019B013B0193019B002BF5D161
:1063700000E000BF03B05DF804FB08B50AF0D0FCF4
:1063800000BF08BD00B589B0039002910192019B46
:10639000002B33D00023079303230693029A079B15
:1063A0001344019A194600200AF044FC0590079A0C
:1063B000059B13440793019A059BD31A0193059BF0
:1063C000002B13D10F4B1B7883F00103DBB2002BA2
:1063D00013D10120FFF7BCFF069B013B0693069BF0
:1063E000002B03D1074B00221A7007E0054B012256
:1063F0001A70019B002BD1D100E000BF00BF09B093
:106400005DF804FB3823002000B585B003900291AD
:10641000054B00934023054A0299039800F012F8B7
:1064200000BF05B05DF804FB856302003C2300203B
:1064300082B0019000BF02B0704782B0019000BFEF
:1064400002B0704700B5A1B0059004910392029389
:10645000049804F011FE039B1593029B16930023EE
:10646000179300238DF8603000231993229B1A9311
:1064700000231F930FA91F9B0822049804F0BAFE63
:1064800008231F93119B1293BDF84030ADF84C3098
:10649000BDF84230ADF84E3000238DF851309DF8F4
:1064A0003C3003F00303DBB2012B26D10F9BC3F377
:1064B00095231C939DF83C30C3F3C203DBB28DF8E7
:1064C0005030BDF83C30C3F38313DBB21B931B9BEE
:1064D0009A0009A91F9B049804F08CFE1B9B9B004B
:1064E0001F9A13441F9312AA09A915AB00931346D0
:1064F0001B9A1C9801F036F82FE09DF83C3003F011
:106500000303DBB2022B28D1BDF83E30C3F389135D
:106510009BB21E939DF83C30C3F3C203DBB28DF8EF
:1065200050301E9B082B28BF08231D9307A91F9BD3
:106530001D9A049804F05EFE1F9A1D9B13441F933E
:106540001E9A1D9BD31A1E9315AB12AA07A81D995C
:1065500001F0AAF81E9B002BE3D1049804F09BFDE8
:1065600000BF21B05DF804FB00B583B00190019B32
:106570001B781A460C4B9B5C002B05D0019B043307
:10658000184608F0A3F80BE0019B1B781A46064B4F
:106590009B5C002B04D1019B0C33184607F036FAA4
:1065A00000BF03B05DF804FB082B002000B587B0E6
:1065B0000390029113468DF8073000230593039B47
:1065C0001B781A46114B9B5C002B09D0039B0433AC
:1065D0009DF807200299184608F0A6F805900FE0EC
:1065E000039B1B781A46094B9B5C002B08D1039B2D
:1065F0000C339DF807200299184607F07DFA0590A4
:10660000059B184607B05DF804FB00BF082B00206F
:1066100082B001900091034B01221A7000BF02B0BA
:10662000704700BFBC23002030B58DB003468DF805
:1066300007301A4B02AC1D460FCD0FC495E80F0072
:1066400084E80F00062302934FF0FF3303934FF0CB
:10665000FF3304934FF0FF3305934FF0EB73089330
:106660009DF80730002B01D00D4A00E0002202AB5C
:1066700019460C4805F0C2FC0B900B9B0A930A9B31
:10668000002B04D0084A43210A9801F0D1FA074AA6
:106690009DF80730137000BF0DB030BDB854030033
:1066A000116602008C22002058540300BD230020F4
:1066B00000B583B001238DF807309DF807301846E8
:1066C000FFF7B2FF00BF03B05DF804FB00B589B06F
:1066D000039002910192019B8DF81F30124B002212
:1066E0001A709DF81F301A4602991048FFF75EFF96
:1066F0000690069B0593059B002B04D00C4A532162
:10670000059801F095FA00BF0A4B1B78002B07D0C3
:10671000054B1B78DBB283F00103DBB2002BF3D116
:1067200000BF09B05DF804FBBC2300208C220020D0
:1067300058540300BD23002000B585B0039002919A
:10674000054B00934023054A02990398FFF77AFE10
:1067500000BF05B05DF804FBCD6602007C2300207D
:1067600082B0019000BF02B07047000000B583B056
:1067700001900548FFF7F8FE0020FFF755FF00BF26
:1067800003B05DF804FB00BF8C22002082B00190B2
:10679000019B01225A7200BF02B0704700B583B05E
:1067A0004FF0FF330193FFF7E8FD0421114800F09B
:1067B000F9FD0190019B002B03DA0F49412009F0FC
:1067C000CFFB0C48FFF7E2FFFFF772FF04210B48F5
:1067D00000F0E8FD0190019B002B03DA06494820F8
:1067E00009F0BEFB0548FFF7D1FF00BF03B05DF81D
:1067F00004FB00BFA0220020E4540300AC220020D0
:1068000000B583B001900091019B1B681B68009943
:106810000198984700BF03B05DF804FB00B583B052
:106820000190019B1B685B680198984700BF03B00B
:106830005DF804FB00B583B00190019B1B689B6869
:106840000198984700BF03B05DF804FB82B0019047
:106850000B468DF80330019B9DF803201A7200BF90
:1068600002B0704782B00190019B1B7A184602B0BB
:10687000704782B00190019B01225A7200BF02B0A2
:10688000704782B00190019B5B7A184602B0704756
:1068900000B587B0019000911D4BFF229A601C4B00
:1068A00000221A601A4B00225A60194B0022C3F8CA
:1068B0001824174B0022C3F81424154B002283F828
:1068C0002024144804F03CFB0490049B002B01D0CE
:1068D000049B18E0104A114BD31ADB0803930023E2
:1068E00005930BE0059B9B000D4A13440293059B07
:1068F0009AB2029B1A80059B01330593059A039B6C
:106900009A42EFD30023184607B05DF804FB00BF9E
:1069100090240020A8530300A85303001853030039
:1069200030220020024A034BD31ADB081846704776
:10693000A85303001853030000B587B001900B461D
:106940008DF803309DF80330002B1FD0FFF7EAFFCE
:1069500004900023059313E0059B9B000E4A13440B
:106960000393039B5B881A46019B1B689A4204D1E0
:10697000019B059A1A60002309E0059B01330593EA
:10698000059A049B9A42E7D3052300E000231846AA
:1069900007B05DF804FB00BF3022002000B585B0D1
:1069A00001900B468DF803309DF8032001AB114692
:1069B0001846FFF7C1FF0346002B07D1019BDB0000
:1069C000054A13440393039B1B6800E00023184609
:1069D00005B05DF804FB00BF1853030084B00190BC
:1069E0000B468DF80330019BDB00174A13440293DA
:1069F0009DF80330013B032B1CD801A252F823F071
:106A0000116A0200196A0200216A02002B6A020060
:106A100002238DF80F3011E004238DF80F300DE0C4
:106A2000029B1B798DF80F3008E0029B5B798DF893
:106A30000F3003E000238DF80F3000BF9DF80F30BA
:106A4000184604B0704700BF1853030000B585B066
:106A50000190009100238DF80F30019B1B7803F00B
:106A60000303DBB2002B06D0019B1B7803F0040369
:106A7000DBB2002B43D0019B1B7803F00403DBB295
:106A8000002B27D0019B1B78C3F30103DBB2012B42
:106A900002D0022B0CD017E0009B1B68019A1288D1
:106AA000C2F38312D2B213449A1C009B1A6023E0F3
:106AB000009B1B68019A5288C2F3891292B2134458
:106AC0009A1C009B1A6017E010494FF4A47009F05B
:106AD00047FA11E0009B1A68019B5B88C3F3891396
:106AE0009BB21946019B1B88C3F389139BB20B44CD
:106AF00013445A1C009B1A6001238DF80F309DF837
:106B00000F30184605B05DF804FB00BF6055030068
:106B100000B58BB00023ADF826303E4803F050F9A5
:106B20003D4803F04DF93D4B5B6804933B4B9B683C
:106B30000693049A069B134002339B00374A134482
:106B40000433089304AB19460898FFF77FFF034608
:106B5000002B09D0049A069B134002339B002F4A56
:106B6000134404330893EDE700BF0023079311E0BB
:106B7000049B5A1C0492069A1340079A920001A99A
:106B80000A44264902339B000B445B681360079B51
:106B900001330793079B012BEAD99DF80430C3F317
:106BA0000103DBB2012B10D0022B1CD1BDF80A303F
:106BB000ADF82630BDF80630C3F389139BB203331A
:106BC0009A08049B1344049313E0BDF80A30ADF80F
:106BD0002630BDF80430C3F38313DBB21A46049B9E
:106BE0001344049305E00E494FF4C27009F0B8F95C
:106BF00000BF094803F0F0F80590059B002B02D078
:106C0000049B064A5360BDF8263018460BB05DF869
:106C100004FB00BFA8280020A42800209024002006
:106C20006055030000B585B00021074803F039F82E
:106C30000390039B0293029B83F310030193019B38
:106C4000184605B05DF804FBAC28002000B589B0FB
:106C50000390029101920093039B1B0C0793FFF793
:106C6000E1FF0690FFF75EFE0246079B934204D3C6
:106C7000214940F2A91009F073F9069B1904009B01
:106C80005A1C0A9B1340079A0A431C4902339B0073
:106C90000B445A60009A0A9B134002339B00174A28
:106CA000134404330593039B03F00703D9B2059AF9
:106CB000137861F3C5031370019B03F00F03D9B27E
:106CC000059A138861F389131380029BC3F315019E
:106CD000059A136861F39F231360059A13780121C5
:106CE00061F301031370059A13786FF38203137035
:106CF00000BF09B05DF804FB60550300902400203C
:106D000000B58DB00390029113468DF80730039BB8
:106D100002330A9301238DF8273000238DF81B30AE
:106D20000DF11B03184601F089FE404B1A68029BC7
:106D30001A603E4B9A683D4B59683C4B1B68CB1A16
:106D4000134401330B9314E00121394803F008F890
:106D5000FFF7DEFE07900799354803F001F8334B43
:106D60009A68324B5968314B1B68CB1A1344013374
:106D70000B930A9A0B9B9A42E6D89DF82730002B7A
:106D800048D0002305939DF80730002B17D09DF8BD
:106D90001430012262F301038DF814309DF8143091
:106DA00043F004038DF81430039B03F00F03DAB2B1
:106DB000BDF8143062F38913ADF8143016E09DF875
:106DC0001430022262F301038DF814309DF8143060
:106DD00043F004038DF81430039BC3F309039AB204
:106DE000BDF8163062F38F13ADF816300F4B1A68EA
:106DF0000E4B9B68134002339B000C4A1344043330
:106E00000893059A089B1A60084B1A680A9B13445A
:106E1000064A13609DF81B30184601F025FE9DF8C8
:106E2000273018460DB05DF804FB00BF9024002009
:106E3000AC28002000B58BB005900491039202931A
:106E40001F4B9B68079306AB012219460298FFF778
:106E500057FF0346002B24D0069B023309930023DF
:106E6000089311E0089B9B00039A1A44099B591C44
:106E7000099107990B401268114902339B000B449A
:106E80005A60089B01330893089A029B9A42E9D3FF
:106E9000069A079B00931346029A04990598FFF7F8
:106EA000D5FE074B93F82034002B05D000BF00F02F
:106EB0007BF80346002BFAD100BF0BB05DF804FB52
:106EC0009024002000B583B001900091002300229F
:106ED00000990198FFF7AEFF00BF03B05DF804FB17
:106EE00000B587B0039002910192019B059305AA1A
:106EF000012302990398FFF79DFF00BF07B05DF8DB
:106F000004FB00B587B00390029101920093019BAE
:106F10000493009B059304AA022302990398FFF7A8
:106F200089FF00BF07B05DF804FB00B589B003908E
:106F3000029101920093019B0593009B06930A9B8B
:106F4000079305AA032302990398FFF773FF00BF75
:106F500009B05DF804FB00B58BB00390029101927B
:106F60000093019B0593009B06930C9B07930D9B3D
:106F700008930E9B099305AA052302990398FFF72E
:106F800059FF00BF0BB05DF804FB0000054B5A68C9
:106F9000044B1B689A420CBF01230023DBB2184646
:106FA000704700BF9024002000B599B0FFF7EEFFB6
:106FB0000346002B01D00023B6E1994B0022C3F811
:106FC0001824BFF34F8F00BF954B5B680493944B1D
:106FD0009B681093049A109B134002339B00904AC5
:106FE00013440433129300231793002316930023B2
:106FF0000F9304AB19461298FFF728FD0346002BA8
:1070000014D0874B1A68049B9A4205D8844B1B689E
:10701000834A5360002387E1049A109B1340023394
:107020009B007F4A134404331293E2E700BF00231E
:10703000159311E0049B5A1C0492109A1340159A60
:10704000920001A90A44764902339B000B445B6815
:107050001360159B01331593159B012BEAD99DF8FD
:10706000043003F00303DBB2022B40F09C80BDF838
:107070000630C3F389139BB20D93BDF80630C3F3FA
:1070800089139BB2502B28BF50239BB20C930C9BAF
:10709000C3F309039AB2BDF8063062F38F13ADF85B
:1070A00006300C9B08330B939DF80430C3F3C203E6
:1070B000DBB20F930B995B4803F04DFF1790179BC2
:1070C000002B00F0D180179803F0D6FF01A9169B82
:1070D0000822179804F07CF8169B08331693049B3B
:1070E000DA43109B134001339B000A930C9A0A9BCE
:1070F0009A4242D90A9B002B08D0049A109B134055
:1071000002339B00464A1344043300E0464B089385
:107110000A9B002B02D00A9BDBB201E00C9BDBB286
:107120008DF81F300A9B002B01D03F4B00E000235D
:1071300006930A9B002B06D00C9BDAB20A9BDBB2AB
:10714000D31ADBB200E000238DF817309DF81F2022
:10715000169B0899179804F03BF89DF81F30169A73
:1071600013441693069B002B16D09DF81720169BF0
:107170000699179804F02CF80EE0049A109B13401F
:1071800002339B00264A134404330993169B0C9A3E
:107190000999179804F01CF80D9B03339A08049B77
:1071A0001344049360E09DF8043003F00303DBB262
:1071B000012B59D1BDF80430C3F38313DBB2062B86
:1071C00028BF0623DAB2BDF8043062F38913ADF8A4
:1071D0000430BDF80430C3F38313DBB202330E93E3
:1071E0009DF80430C3F3C203DBB20F930E9B9B00E8
:1071F00019460C4803F0AFFE1790179B002B33D0B5
:10720000179803F039FF01A9169B0822179803F07D
:10721000DFFF169B08331693002315931BE000BF76
:1072200090240020A85303009C240020049B5A1C97
:107230000492109A134002339B003D4A1344191DD7
:10724000169B0422179803F0C3FF169B0433169372
:10725000159B01331593BDF80430C3F38313DBB2E0
:107260001A46159B9342E1D3179B002B3FD0304B1E
:10727000D3F8103414932E4BD3F81834002B1AD0B3
:10728000179803F008FF49E000238DF84F30149859
:10729000FFF7F7FA0346002B02D001238DF84F3099
:1072A0009DF84F30002B03D017991498FFF7A8FAD8
:1072B000149B5B681493149B002BE5D1179803F083
:1072C000EAFE00238DF803300DF10303184601F0A8
:1072D000B5FB174BD3F81834002B02D1049B144A8A
:1072E00053609DF80330184601F0BEFB16E0104BCA
:1072F000D3F81034119305E01198FFF79BFA119B16
:107300005B681193119B002BF6D10A4B1B881B0461
:1073100043F0020308491846FFF7D4FDFFF736FE95
:10732000034683F00103DBB2184619B05DF804FB95
:107330009024002048220020BC55030000B585B0F1
:107340000023039322E0164BD3F810340293012359
:107350008DF807300EE00298FFF784FA03461A46CC
:10736000039B934203D100238DF8073005E0029B75
:107370005B680293029B002BEDD19DF80730002B38
:1073800001D0039B07E0039B01330393039B092B6D
:10739000D9DD4FF0FF33184605B05DF804FB00BFA0
:1073A0009024002000B585B001900B468DF8033085
:1073B000FFF7C4FF0390039BB3F1FF3F01D1039B91
:1073C0001EE0039BDBB219460198FFF73FFA0E4B14
:1073D000D3F81034002B07D10B4A019BC2F81034AC
:1073E000019B00225A600AE0074BD3F810345A6818
:1073F000019B5A60044BD3F81034019A5A60039BE6
:10740000184605B05DF804FB9024002000B583B059
:107410000C4BD3F8103401930A4B012283F820243B
:1074200008E00198FFF725FA0198FFF7F7F9019BAB
:107430005B680193019B002BF3D100BF00BF03B039
:107440005DF804FB9024002082B00190009100BF01
:1074500002B0704710B584B003900291039BDB88A3
:10746000002B0AD0039BDB881A461F4B0093134660
:107470001E4A1F49029802F0EBFD039B1B7A052B65
:107480002ED0039B5B7A002B12D0039B9B881A465D
:10749000039B1B7A19461046FFF7A0FA03461A46CB
:1074A000144B53F822301A461349029802F0D0FDCB
:1074B000039B1B6819460298FFF7C6FF039B1B7AC4
:1074C0001A460E4B53F82240039B9B880021184616
:1074D000FFF764FA034622460949029802F0B8FD14
:1074E00000BF04B010BD00BFF055030000560300FC
:1074F00038560300CC22002050560300B82200204A
:107500005456030000B585B00390029113468DF8E0
:107510000730039B1B7A052B0FD0039B5B7A002B54
:1075200006D00D4B1B681A460C49029802F090FDDC
:107530000B49029802F08CFD07E09DF80730002B04
:1075400003D00749029802F083FD029802F05EFD25
:1075500000BF05B05DF804FBCC22002050560300AC
:107560006056030030B58BB00790069105920493E6
:107570000E9B1B7B8DF827300E9B00221A730E99F1
:107580000498FFF767FF059B062B7FD801A252F8EE
:1075900023F000BFB1750200BB750200CB7502007D
:1075A000DF750200FD7502002576020055760200A7
:1075B00007990E9802F04CFD69E0069B1B681A467D
:1075C00007990E9802F044FD61E0069B1A68069B3D
:1075D00004331B6807990E9802F03AFD57E0069BAA
:1075E0001A68069B04331968069B08331B680093CE
:1075F0000B4607990E9802F02BFD48E0069B196890
:10760000069B04331868069B08331B68069A0C32E5
:1076100012680192009303460A4607990E9802F0F9
:1076200017FD34E0069B1868069B04331C68069B14
:1076300008331B68069A0C321268069910310968E3
:107640000291019200932346024607990E9802F098
:10765000FFFC1CE0069B1C68069B04331D68069B10
:1076600008331B68069A0C321268069910310968B3
:1076700006981430006803900291019200932B4603
:10768000224607990E9802F0E3FC00E000BF0022BA
:107690000E990498FFF736FF0E9B9DF827201A736A
:1076A00000BF0BB030BD00BF00B587B003900291A2
:1076B00001920093029B082B5CD8009B1B7B8DF8EA
:1076C0001330009B00221A7300990198FFF7C2FE45
:1076D0000023059314E0059A029B9A4209D2039A6B
:1076E000059B13441B781A462449009802F0B0FC0D
:1076F00003E02349009802F0ABFC059B013305939E
:10770000059B072BE7D91F49009802F0A1FC002335
:10771000059322E0059A029B9A4217D2039A059B91
:1077200013441B788DF812309DF8123018460DF076
:10773000D7F90346002B02D09DF8123000E02E232B
:107740001A461149009802F083FC03E00F490098A3
:1077500002F07EFC059B01330593059B072BD9D9CD
:10776000012200990198FFF7CDFE009B9DF81320A0
:107770001A7300E000BF07B05DF804FB6456030015
:107780006C560300705603007456030078560300CD
:107790002DE9F04F91B0099000238DF83F30A6E01D
:1077A000594B1A689DF83F30DB0013440E930E9B33
:1077B0001B781C464FF001024FF00003A4F120019A
:1077C000C4F1200003FA04FB02FA01F14BEA010BB9
:1077D00022FA00F04BEA000B02FA04FACDE90CABF6
:1077E0004A4BD3E90001DDE90C2300EA02040094CE
:1077F0000B400193DDE90034234373D0DDE90C2312
:10780000D1430291DB430393404BD3E90023DDE9ED
:10781000024521461140049129460B4005933B4BFC
:10782000DDE90412C3E900120E9B1B78184605F02F
:1078300003FB03468DF82F300E9B1B781C464FF040
:1078400001024FF00003A4F12001C4F1200003FA6B
:1078500004F702FA01F10F4322FA00F0074302FA9B
:1078600004F62B4BD3E9002306EA020106913B40C4
:1078700007939DF82F004FF000010E9B1B781C46CC
:10788000A4F12003C4F1200201FA04F900FA03F381
:1078900049EA030920FA02F249EA020900FA04F867
:1078A000DDE906344C4508BF43451BD19DF82F2028
:1078B0000E9B5B78012B0CBF01230023DBB29A42A5
:1078C0000CBF01230023DBB20A930E9B5B68002BE5
:1078D00008D00E9B5C680E9B1A780A9BDBB2194697
:1078E0001046A0479DF83F3001338DF83F30094BDB
:1078F0001A789DF83F309342FFF452AF00BF00BFAB
:1079000011B0BDE8F08F00BFB4280020E8280020A7
:10791000E0280020B82800202DE9704F90B00B908F
:107920000B468DF82B304FF001024FF000030B9EF9
:10793000A6F12001C6F1200003FA06F502FA01F1D2
:107940000D4322FA00F0054302FA06F4CDE90E4594
:10795000384B184600F0DCFF0D900D9B002B64D1D6
:10796000354BD3E90001DDE90E2300EA020400945F
:107970000B400193DDE90034234341D10B9805F01E
:107980005BFA0346002B0FD02C4BD3E90001DDE955
:107990000E2340EA020402940B430393274BDDE9D4
:1079A0000212C3E9001213E0DDE90E236FEA020AB6
:1079B0006FEA030B214BD3E900230AEA0201049189
:1079C0000BEA030305931D4BDDE90412C3E9001222
:1079D000194BD3E90001DDE90E2340EA02040694C5
:1079E0000B430793144BDDE90612C3E9001211485B
:1079F000134B1B680022194600F058FF0D9015E04C
:107A0000DDE90E236FEA02086FEA03090A4BD3E9A6
:107A1000002308EA0201089109EA03030993064BCF
:107A2000DDE90812C3E9001200E000BF10B0BDE8B4
:107A3000708F00BFC0280020E8280020E028002028
:107A4000BC28002000B58BB003900B4601928DF846
:107A50000B30019B042B01D807235AE005F0DEF818
:107A6000034683F00103DBB2002B09D005F084F854
:107A70000990099B0893089B002B01D0089B48E0C4
:107A8000264A039B1360264A9DF80B301370254A43
:107A9000019B136024494FF000024FF00003C1E93D
:107AA000002322494FF000024FF00003C1E90023F8
:107AB00022E09DF80B30DB00039A1344079305ABDB
:107AC00000210A461A800A469A7003238DF8143062
:107AD000079B9B788DF81530079B1B78184605ABE4
:107AE000134A194605F0A6F80990099B0693069BD0
:107AF000002B01D0069B0CE09DF80B305A1E8DF830
:107B00000B20002BD5D10B4A00210B4800F09EFE24
:107B1000034618460BB05DF804FB00BFB4280020F4
:107B2000B8280020BC280020E0280020E8280020F9
:107B300019790200917702007C56030000B583B0EA
:107B4000114B1B68002B03D11049BA2008F008FA2A
:107B5000002301930CE00C4B1A68019BDB001344DB
:107B60001B780121184605F0DFF8019B01330193D2
:107B7000074B1B781A46019B9342ECD3002318460F
:107B800003B05DF804FB00BFB4280020805603005A
:107B9000B828002086B003900291019201238DF84D
:107BA00017309DF81730214A039B13601F4A029B30
:107BB00053601E4A019B9360039B44F2010293426F
:107BC00013D0039B44F20202934221D1019B174A36
:107BD000D360164BDB681B881A46144B9A61134B13
:107BE000DB685B68114AD36112E0019B0F4A1361A5
:107BF0000E4B1B699B680D4A53610C4B1B691B683C
:107C00000A4A9361094B1B695B68084AD36100BF4C
:107C100072B600BF00BF9DF81730DBB2002BFAD15F
:107C200062B600BF00BF06B0704700BFF02800205A
:107C300000B583B002900091019244F201007146B8
:107C40006A4600F003F803B000BD00BF30B58BB04A
:107C500007900691059272B600BFFFF7D7FB00BFF1
:107C6000FFF7A2F90346002BFAD1079B44F2020268
:107C700093422BD0079B44F20202934261D8079BA8
:107C800044F20102934232D0079B44F20102934234
:107C900057D8079B012B05D0079B41F20102934265
:107CA0000AD04EE0344B1B881B0443F001033349D8
:107CB0001846FFF707F94FE02F4B1B881B0443F0D2
:107CC00001032F491846FFF7FDF845E0059B09938E
:107CD000294B1B881B0443F001031846099B5B6872
:107CE0001A46099B1B882749FFF70BF934E0059BCF
:107CF0000893214B1B881B0443F001031D46089B7E
:107D00009C68089B9B68184603F080FB0346184656
:107D1000089B5B681946089B1B68069A02920193B0
:107D200000910346224618492846FFF714F9124BE2
:107D30001B881B0443F0010314491846FFF7C2F8DF
:107D40000AE00D4B1B881B0443F00103069A1049FF
:107D50001846FFF7C5F800BF0E4B1B6803F0010380
:107D6000002B00D000BE059A06990798FFF712FF76
:107D700000BF0BB030BD00BF48220020CC5603002E
:107D8000EC560300105703002C5703005457030010
:107D900068570300F0ED00E082B003468DF807302D
:107DA0009DF8073003F01F0205499DF907305B0974
:107DB000012000FA02F241F8232000BF02B0704710
:107DC00000E100E082B003468DF807309DF80730EF
:107DD00003F01F0206499DF907305B09012000FAF4
:107DE00002F2203341F8232000BF02B0704700BFE9
:107DF00000E100E082B003468DF807309DF80730BF
:107E000003F01F0206499DF907305B09012000FAC3
:107E100002F2403341F8232000BF02B0704700BF98
:107E200000E100E082B003468DF807309DF807308E
:107E300003F01F0206499DF907305B09012000FA93
:107E400002F2603341F8232000BF02B0704700BF48
:107E500000E100E082B0034600918DF807309DF903
:107E60000730002B0CDA009BDAB20C499DF8073082
:107E700003F00F03043B5201D2B20B441A7609E01F
:107E8000009BDAB206499DF907305201D2B20B4489
:107E900083F8002300BF02B0704700BF00ED00E090
:107EA00000E100E000B585B00190019B002B0AD0F5
:107EB000074B43F001030393019B9B010293039B38
:107EC0000298984700E000BF05B05DF804FB00BFD2
:107ED0008057030000B583B00190064A019BC2F8A9
:107EE000083507211120FFF7B5FF00BF03B05DF88B
:107EF00004FB00BF0010014008B50D4B4FF4803269
:107F0000C3F844230A4B4FF48032C3F804231120F2
:107F1000FFF788FF1120FFF73FFF054B01221A6092
:107F20002F20FFF7BFFF034B01221A7000BF08BDCF
:107F3000001001402E2A002008B51120FFF742FF53
:107F40000E4B4FF48032C3F848230C4B4FF4803271
:107F5000C3F80823094B01225A602F20FFF7A2FF24
:107F6000064B01229A60064B00221A602F20FFF771
:107F700099FF044B00221A7000BF08BD0010014099
:107F8000202A00202E2A0020024BD3F80435184660
:107F9000704700BF0010014082B001900091019A2B
:107FA000009BD31A23F07F43184602B070470000AD
:107FB00082B00190034A019BC2F8403500BF02B075
:107FC000704700BF0010014086B00190284B1B682D
:107FD000002B03D1264A019B136045E0019B1A68E0
:107FE000234B1B681B689A4210D8214B1B681968E9
:107FF000019B1A681E4B1B688A1A1A601C4B1A6870
:10800000019BDA611A4A019B13602DE0019B1B68FA
:108010000393174B1B680593154B1B68049309E0EA
:10802000049B1B68039AD31A0393049B0593049B38
:10803000DB690493049B002B04D0049B1B68039A08
:108040009A42EDD8049B002B05D0049B1A68039B31
:10805000D21A049B1A60019B039A1A60019B049A2E
:10806000DA61059B019ADA6100BF06B0704700BF74
:108070001C2A002000B587B001902A4B1B6803938F
:10808000284B1B680593059B049308E0049A019B09
:108090009A4208D0049B0593049BDB690493049BDC
:1080A000002BF3D100E000BF049B002B01D1002383
:1080B00033E0059A049B9A4214D11A4B1B68DB6982
:1080C000184A1360174B1B68002B0BD1164B01226B
:1080D0009A60164B00221A60154B01221A702F204D
:1080E000FFF7E0FE049B1B680293049BDA69059B83
:1080F000DA61059BDB690493049B002B05D0049B8C
:108100001A68029B1A44049B1A60064B1B68039A68
:108110009A4214BF01230023DBB2184607B05DF872
:1081200004FB00BF1C2A002000100140202A002070
:108130002F2A002008B51120FFF75CFE00BF08BD04
:1081400008B51420FFF756FE00BF08BD00B583B088
:108150000190019B5B69019A92691046984700BFA4
:1081600003B05DF804FB000000B585B02B4B1B6825
:10817000002B4ED000230193FFF706FF0246284B49
:108180001B6819461046FFF707FF0290234B1B6838
:1081900003931DE0039B1B68029A9A421CD3039B26
:1081A0001B68029AD31A0293039B1B68019A13441B
:1081B0000193039B0093039BDB690393009B1B7C50
:1081C000002B05D0009B00221A740098FFF7BEFF19
:1081D000039B002BDED100E000BF124B1A78124B3C
:1081E0001B789A420CD1104B1B780133DAB20E4B3C
:1081F0001A700D4B1B78022B02D10B4B00221A7008
:10820000094B1B781946094A019B42F82130FFF7B8
:1082100097FF00BF05B05DF804FB00BF1C2A0020DB
:10822000202A00202C2A00202D2A0020242A002089
:1082300082B00190184B1A78184B1B789A4223D0C1
:10824000154B1B780133DAB2134B1A70124B1B78A3
:10825000022B02D1104B00221A700F4B1B781A46CA
:108260000F4B53F82220019B1A60019B1A680D4B9B
:108270001B6813440B4A13600A4B1B6823F07F43AF
:10828000084A1360012303E0019B00221A600023C7
:10829000184602B0704700BF2C2A00202D2A00206B
:1082A000242A0020202A002088B003900291019205
:1082B0000023079338E0204B1B680693069B1B683E
:1082C000039A9A4206D2069B1A68039BD21A069B0F
:1082D0001A602EE0069B1B68039AD31A0393069B31
:1082E0001B68079A13440793069B00221A60124BDF
:1082F0001B680593069BDB690F4A1360069BDB68CE
:10830000002B11D0029A079B134423F07F42069B57
:108310005A60069BDA68069B9A60019B1A68069B66
:10832000DA61019B059A1A60034B1B68002BC2D1CE
:1083300000BF00BF08B070471C2A002000B589B0FC
:10834000019000238DF81F30664B1B680593AAE04F
:10835000019B002B05D0019B0693069BDB690193D3
:1083600061E0614B1B781A4613465B001344DB0047
:108370005D4A1344043304935B4B1B780133DAB238
:10838000594B1A70584B1A78574B9B789A4202D126
:10839000554B00221A70049B5B680693049B1B7864
:1083A000032B1ED0032B7EDC012B1FD0022B7AD196
:1083B000049B5B681846FFF75DFE0346002B02D066
:1083C00001238DF81F30069B00221A746BE0454B89
:1083D0001B680393039B00221A74039BDB69414AC9
:1083E0001360404B1B68002BF1D15CE000BF069B83
:1083F0001B7C002B00D056E0049B9A68069B5A60B9
:10840000049BDA68069B9A60049B1A69069BDA60F3
:10841000049B5A69069B9A61344B1B78002B02D04F
:10842000069B00225A60069B5A68314B1B68D31A80
:1084300023F07F432F4A93420ED8069B5B682C4A59
:10844000126811461846FFF7A7FD0246069B9B6877
:108450001A44069B1A6017E0254B1A68069B5B6856
:1084600019461046FFF798FD0290069B9B68029AFA
:108470009A4206D2069B9A68029BD21A069B1A6001
:1084800002E0069B00221A60069B00225A60069BAF
:1084900000229A60069B01221A74069B0022DA6170
:1084A0000698FFF791FD019B002B7FF451AF0E4B17
:1084B0001A780D4B5B789A427FF44AAF9DF81F30D3
:1084C000002B04D1074B1B68059A9A4201D0012367
:1084D00000E0002303F00103DBB2184609B05DF8A9
:1084E00004FB00BF1C2A0020102900202F2A002096
:1084F000202A0020FEFF7F0010B588B00190274B96
:108500001B68002B44D0254B1B681B680793FFF7A3
:108510003BFD0690224B1B68059305990698FFF7D3
:108520003BFD0346033304931E4B1B7883F001038A
:10853000DBB2002B01D0FFF7DFFC049A079B9342CC
:1085400038BF1346059A13440593059B23F07F43D8
:1085500005930598FFF72CFDFFF716FD039006998C
:108560000398FFF719FD0346DC1C06990598FFF7F1
:1085700013FD03469C420DD9FFF706FD034618463E
:10858000FFF716FD2F20FFF78DFCFFF7D3FD01E06D
:10859000FFF7D2FC00BF08B010BD00BF1C2A0020AE
:1085A000202A00202E2A002000B587B00023019346
:1085B00000238DF81730194B1B680493184B1B6868
:1085C00003936B461846FFF733FE03468DF80B30D6
:1085D0009DF80B30002B08D0009B01AA0499184687
:1085E000FFF762FE01238DF81730019B1846FFF755
:1085F000A5FE0346002B02D001238DF817309DF80D
:108600001730002B02D00398FFF776FF054B0022AE
:108610001A7000BF07B05DF804FB00BF202A0020DD
:108620001C2A00202F2A002082B003468DF8073034
:10863000034A9DF80730537000BF02B0704700BF77
:108640001029002084B00190144B5B7801338DF821
:108650000F30124B9B789DF80F209A4202D10023D5
:108660008DF80F300D4B1B789DF80F209A4201D1E9
:1086700000230FE0019B9DF80F201A70074B5B78D9
:108680001A4613465B001344DB00044A13440433C8
:108690000293029B184604B0704700BF10290020C7
:1086A00000B589B0039002910192009300230793D3
:1086B00000238DF816300DF11603184600F0BEF9B0
:1086C0000DF117031846FFF7BDFF0690069B002B20
:1086D00002D10423079318E0069B01221A70069B1F
:1086E000039A5A60FFF750FC0246069B9A60069B6D
:1086F000029ADA60069B019A1A61069B009A5A61F7
:108700009DF817301846FFF78FFF9DF81630184672
:1087100000F0AAF9079B002B01D1FFF711FD079B81
:10872000184609B05DF804FB00B587B001900B4610
:108730008DF803300023059300238DF80E300DF1E2
:108740000E03184600F07AF90DF10F031846FFF7F3
:1087500079FF0490049B002B02D1042305930BE0C6
:10876000049B9DF803201A70049B019A5A609DF89F
:108770000F301846FFF758FF9DF80E30184600F0EE
:1087800073F9059B002B01D1FFF7DAFC059B184616
:1087900007B05DF804FB000008B50E4B0022C3F8DB
:1087A00040210C4B0022C3F844210A4B0022C3F89D
:1087B0004821084B0022C3F84C21064B0022C3F885
:1087C0000021044B0022C3F80421FFF7CDFC00BFB9
:1087D00008BD00BF0010014008B5FFF7E5FE00BF6F
:1087E00008BD000008B5FFF7A7FB134B00221A7065
:1087F000114B00225A70104B0B229A700F4B002223
:108800001A600F4B00221A700E4B00221A701420AF
:10881000FFF708FB07211420FFF71CFB1420FFF7CC
:10882000BBFA0020FFF756FBFFF7AEFB0346064AF4
:1088300013600023184608BD102900201C2A0020C0
:108840002C2A00202D2A0020202A002086B0039008
:108850000B4601928DF80B30134B9B78002B01D106
:1088600008231EE0019B002B01D1072319E0039B85
:10887000002B01D1072314E0039B1B681B7C002BFA
:1088800001D008230DE0039B1B680593059B002284
:108890001A74059B9DF80B205A74059B019A5A6126
:1088A0000023184606B070471029002000B587B095
:1088B000039002910192039B0593144B9B78002B2C
:1088C00001D108231EE0039B002B01D1082319E0EE
:1088D000029B042B01D8072314E0059B5B69002B46
:1088E00001D108230EE0059B5B7C012B01D1029B8B
:1088F00000E000230493019B049A02990598FFF776
:10890000CFFE0346184607B05DF804FB102900208F
:1089100000B585B00190019B03930D4B9B78002B14
:1089200001D1082310E0019B002B03D0039B5B695E
:10893000002B01D1082307E0039B00221A740221B7
:108940000398FFF7F1FE0346184605B05DF804FBF7
:108950001029002082B0EFF310830093009B019355
:1089600072B600BF019B184602B0704762B600BFE6
:1089700000BF704700B585B00190FFF7EBFF039093
:10898000164B9B68002B1BD1144B01229A60144B91
:10899000D3F88020134B1340104A1360104B114A38
:1089A000C3F880200E4BD3F884300C4A53600C4B34
:1089B0004FF0FF32C3F88420019B00221A7002E0BE
:1089C000019B01221A70039B002B01D1FFF7CEFF00
:1089D0000023184605B05DF804FB00BF302A0020D4
:1089E00000E100E0FC06FFBD00B585B003468DF850
:1089F0000730104B9B68002B16D09DF80730002BDA
:108A000012D1FFF7A7FF03900B4A0A4B1B681360B4
:108A1000094A084B5B685360064B00229A60039B2F
:108A2000002B01D1FFF7A2FF0023184605B05DF827
:108A300004FB00BF302A002000E100E000B583B055
:108A4000019000F02BF80346012B03D00549432089
:108A500007F086FA0198FFF78DFF00BF03B05DF8BD
:108A600004FB00BF8857030000B583B003468DF8B0
:108A7000073000F013F80346012B03D006495120BC
:108A800007F06EFA9DF807301846FFF7ADFF00BFFC
:108A900003B05DF804FB00BF8857030084B0EFF318
:108AA00005830193019BC3F308030393039B002BEE
:108AB0000DD1EFF314830093009B0293029B03F00C
:108AC0000103002B0CBF01230023DBB200E00123D4
:108AD000184604B0704782B00190019B03F0030375
:108AE000002B0CBF01230023DBB2184602B07047F5
:108AF00000B585B00190002303930EE00B4A039B61
:108B000052F82330002B05D0084A039B52F823303B
:108B100001989847039B01330393039B032BEDD9E3
:108B200000BF00BF05B05DF804FB00BF482A00206D
:108B300082B001900091019B1B78013B052B61D80D
:108B400001A252F823F000BF618B0200698B020082
:108B50008F8B0200C18B0200E18B0200FD8B0200B3
:108B6000009B00221A704EE0009B01221A70019BAC
:108B70001A89009B9A81019B9A88009BDA81019B4C
:108B8000DA68009B9A60009B00221A743BE0009B0D
:108B900002221A70019B1A89009B9A81019B9A8874
:108BA000009BDA81019BDA68009B9A60019B9B7DA8
:108BB000062B0CBF01230023DAB2009B1A7422E0BB
:108BC000009B03221A70019BDA88009B9A81019B0B
:108BD0001A89009BDA81019BDA68009B9A6012E097
:108BE000009B04221A70019BDA88009B9A81009BEB
:108BF0000022DA81009B00229A6004E0009B05229B
:108C00001A7000E000BF00BF02B0704784B001904E
:108C10000091019B0393039A009B9A4206D2039B07
:108C20001B68B3F1FF3F01D0012300E0002303F0F4
:108C30000103DBB2184604B0704782B00190019B7B
:108C40005B8803339B00019A1344184602B07047B7
:108C500000B583B0019000910198FFF7EEFF024646
:108C6000009B934201D202230CE0019B9B884FF6AC
:108C7000FF72934203D0019B1B88002B01D101237B
:108C800000E00023184603B05DF804FB00B583B094
:108C90000190019B002B13D00D4BDB681A46019B02
:108CA00093420DD30A4B1B691A46019B934207D886
:108CB0000198FFF710FF0346002B01D0012300E0CD
:108CC000002303F00103DBB2184603B05DF804FB98
:108CD0007822002084B0019000910A23039300239E
:108CE000ADF80A3027E0BDF80A20174913469B006B
:108CF00013449B000B4404331B68009A9A4215D915
:108D0000BDF80A20104913469B0013449B000B44F6
:108D100004331B6803F58053009A9A4206D200235D
:108D20000393019BBDF80A201A8008E0BDF80A30C1
:108D30000133ADF80A30BDF80A30012BD3D9039BBB
:108D4000184604B0704700BF582A002082B0019036
:108D50000091009B9B7D022B09D9019B1A89009BE6
:108D6000DB8813449BB203339AB2019B1A81019BA7
:108D70005A89009BDB88D31A9BB2033B9AB2019BB2
:108D80005A8100BF02B0704700B583B0074B1B6823
:108D90001946002300930823054A064801F0FCFC0D
:108DA0000346184603B05DF804FB00BF802A00208C
:108DB000285803007822002000B585B0039003995D
:108DC000002300930823044A044801F0E5FC03460D
:108DD000184605B05DF804FB3058030078220020E7
:108DE00000B585B003460091ADF80630BDF8062009
:108DF000244913469B0013449B000B4404331B6817
:108E000003F580530293009B1B680393039B002B85
:108E100004D00398FFF711FF039026E0BDF8062069
:108E2000184913469B0013449B000B4404331B68F2
:108E30000833039319E002990398FFF709FF0346EB
:108E4000022B10D0022B10DC002B02D0012B05D0FE
:108E50000BE0009B039A1A6001230EE00398FFF7D2
:108E6000ECFE039001E0002307E002990398FFF76E
:108E7000CDFE0346002BDED10023184605B05DF879
:108E800004FB00BF582A002000B585B00190009176
:108E9000019B5B681846FFF7F9FE0346002B19D0CB
:108EA000019B1A89244B1B899A4213D1019B1A6892
:108EB000019B5B689B689A420CD1019B5B681946D9
:108EC0000098FFF707FF0346002B0CBF0123002388
:108ED000DBB22CE0009B00221A8023E000230293E7
:108EE00010E0029B0393039B9A68019B1B689A42C4
:108EF00008D1029A019B5A600F4B1A89019B1A8173
:108F0000012314E0009B1B8802AA11461846FFF7B4
:108F100067FF0346002BE4D1009B1B8801339AB204
:108F2000009B1A80009B1B88012BD7D90023184671
:108F300005B05DF804FB00BF882A002000B587B0AB
:108F40000390029101920093304B1B78DBB283F0C7
:108F50000103DBB2002B01D0022353E0019B002B65
:108F600002D0009B002B48D105234BE0009B9B883F
:108F70001946274A0B469B000B449B0013441B7861
:108F8000002B33D124E0009B1B680593039B002B2F
:108F900006D0059B9A88039B1B889A4200D017E055
:108FA000029B002B06D0059B1A88029B1B889A42C5
:108FB00000D00DE0059B9A68019B1A60009B1A681F
:108FC000019B5A60134B1A89019B1A81002319E0F7
:108FD000009B9B88009A11461846FFF701FF034645
:108FE000002BD0D1009B00221A6000E000BF009B44
:108FF0009B8801339AB2009B9A80009B9B88012B2F
:10900000B4D90A23184607B05DF804FB3C2A0020B7
:10901000582A0020882A002000B583B00190054B13
:109020000199184600F0C7FD0346184603B05DF8E5
:1090300004FB00BFF022002000B583B00190044B78
:109040000199184600F0D0FD00BF03B05DF804FBA5
:10905000F022002008B50A4B1B68002B04D10949F7
:1090600040F27A2006F07CFF0121054800F090FED6
:109070000346002B14BF01230023DBB2184608BDB2
:10908000442A0020E857030000B587B003900291FE
:10909000039B02229A750299039B1A1D00230093D9
:1090A0000423074801F078FB0590059B002B01D1B4
:1090B000002300E00E23184607B05DF804FB00BF54
:1090C0007822002000B587B003900291039B1B69B2
:1090D000002B01D0032200E00122039B9A75029B22
:1090E00008331946039B03F10C0200230093042369
:1090F000064801F051FB0590059B002B01D1002390
:1091000000E00E23184607B05DF804FB782200202B
:1091100000B587B003900291039B1B78032B01D10C
:10912000052200E00622039B9A75029B0433194630
:10913000039B03F10802002300930423064801F077
:109140002BFB0590059B002B01D1002300E00E2393
:10915000184607B05DF804FB7822002000B587B000
:1091600003900B46ADF80A300399002300930423C3
:109170000C4A0D4801F010FB0590059B002B01D017
:109180000E230BE0BDF80A20084913469B00134448
:109190009B000B44103301221A700023184607B0BD
:1091A0005DF804FB3858030078220020582A00207C
:1091B00000B589B0019002AB00221A605A609A6033
:1091C000019BDB6802930DF1160202AB11461846B3
:1091D000FFF75AFE0346002B12D0039B0693069B13
:1091E0009A88019BDA80069B1A88019B1A81039B4F
:1091F000BDF8162011461846FFF7B0FF079001E0B2
:109200000A230793079B184609B05DF804FB00008A
:1092100000B587B00190019B981D02AA0D4B00215B
:10922000FFF78CFE0590059B002B08D1039B094A94
:10923000928811461846FFF791FF059004E0082236
:10924000002104480BF099FC059B184607B05DF817
:1092500004FB00BF982A002000B587B0039002915C
:10926000039B01229A75029B0C331846039B1A69D3
:10927000039BDB889B00002100910146064801F01A
:109280008BFA0590059B002B01D1002300E00E23F3
:10929000184607B05DF804FB7822002082B0184B16
:1092A0001B8901339AB2164B1A81154B00225A8042
:1092B000134B00221A730023ADF8063018E0BDF8F6
:1092C0000620104913469B0013449B000B441A7858
:1092D000BDF80630002A0CBF01220022D1B2084A94
:1092E00013440A469A72BDF806300133ADF80630D1
:1092F000BDF80630012BE2D900BF00BF02B07047B5
:10930000882A0020582A002084B0019000238DF87C
:109310000F300023ADF80C3031E0BDF80C301C4AA2
:1093200013449B7A002B25D0BDF80C30184A134407
:1093300000229A72BDF80C20164913469B00134474
:109340009B000B440C331B68002B13D1BDF80C2081
:10935000104913469B0013449B000B4410331B78A9
:10936000002B07D0019BBDF80C201A8001238DF83B
:109370000F3008E0BDF80C300133ADF80C30BDF80B
:109380000C30012BC9D99DF80F30184604B0704736
:10939000882A0020582A002008B5084B05221A7098
:1093A000074B02229A80064B1B68194600230122B4
:1093B000044801F0C9FA0346184608BD882A00206F
:1093C000802A00207822002000B583B0164B5B88ED
:1093D000ADF80230BDF80220144913469B00134437
:1093E0009B000B440C331B68002B14D10E4B042242
:1093F0001A70BDF802200D4913469B0013449B00D0
:109400000B4404331B68194600230122084801F06D
:109410009BFA019002E0FFF7BFFF0190019B184605
:1094200003B05DF804FB00BF882A0020582A002002
:109430007822002000B587B0104B5B680593104B75
:109440001A680F4B9B889B0013440493059B5B8811
:109450000333ADF80E30094B03221A700499074B01
:109460005A68BDF80E309B0000200090054801F0BE
:1094700093F90346184607B05DF804FB882A0020DC
:10948000802A00207822002000B583B00A4B5B8838
:109490000A491846FFF7A4FC0346002B03D0FFF748
:1094A000C9FF019002E0FFF78FFF0190019B184672
:1094B00003B05DF804FB00BF882A00208C2A00203E
:1094C00008B50A4B06221A70084B5B881946084AF1
:1094D0000B469B000B449B00134404331B68184647
:1094E000FFF76AFC0346184608BD00BF882A002023
:1094F000582A002008B5054B07221A70034B00229A
:109500005A60FFF741FC0346184608BD882A002030
:1095100008B50D48FFF7F8FE034683F00103DBB200
:10952000002B0BD0094B00221A70084B00225A80E6
:10953000064B00225A6041F61D5302E0FFF7A4FFDC
:109540000346184608BD00BF8A2A0020882A00204A
:1095500082B0094B5B680193019B5B880333ADF8D4
:109560000230064B9A88BDF8023013449AB2034B7E
:109570009A8000BF02B07047882A0020802A00200D
:1095800082B0184B1B680193174B5B881946174A2A
:109590000B469B000B449B00134404331B68114A89
:1095A0001360114B5B881946104A0B469B000B4415
:1095B0009B0013440433019A1A600B4B5B881946D5
:1095C000084B9888094A0B469B000B449B001344A8
:1095D000083302461A80034B02229A8000BF02B071
:1095E000704700BF802A0020882A0020582A0020C7
:1095F00008B51A4B1B78072B2CD801A252F823F080
:109600002196020055960200559602002D96020002
:109610003996020045960200459602004D960200DA
:10962000FFF73CFE0D4B01221A7014E0FFF790FF8C
:109630000A4B02221A700EE0FFF7A2FF074B062228
:109640001A7008E0054B07221A7004E0034B012250
:109650001A7000E000BF00BF08BD00BF882A0020CC
:1096600000B587B0019000910F230593019B002B5B
:1096700004D0624B00225A600123BBE0009B1B799F
:10968000032B00F2AB8001A252F823F09D9602005A
:10969000AB9602003997020059970200009B012205
:1096A0001A71FFF771FB05909BE000238DF81330D2
:1096B0000023ADF810302BE0BDF8102050491346C0
:1096C0009B0013449B000B441B78022B1BD1BDF85D
:1096D00010204B4913469B0013449B000B4400226F
:1096E0001A7001238DF81330BDF810204449134639
:1096F0009B0013449B000B4404331B681846FFF780
:109700005BFB059008E0BDF810300133ADF8103078
:10971000BDF81030012BCFD99DF8133083F0010331
:10972000DBB2002B5CD0354B01221A70334B002288
:109730005A6041F61D535DE0009B00221A71314BC7
:1097400002229A802F4B1B681946002301222E48C3
:1097500001F0FAF8059044E0009B00221A71294BB1
:109760001B681846FFF728FB0590284B5B88ADF86F
:109770000E30244B1B680293BDF80E20204913467F
:109780009B0013449B000B4404331B681D4A136069
:10979000BDF80E201A4913469B0013449B000B444E
:1097A0000433029A1A60BDF80E20164B98881449AB
:1097B00013469B0013449B000B44083302461A8057
:1097C000104B02229A80BDF80E200D4913469B00D3
:1097D00013449B000B4400221A7002E000BF00E01B
:1097E00000BF059B002B04D0044B00225A600E23BF
:1097F00000E00023184607B05DF804FB3C2A002077
:10980000582A0020802A002078220020882A002060
:1098100000B587B001900091009B9B8A1A461346C1
:109820009B0013449B003A4A13440493019B002B72
:1098300005D000990498FFF789FA012363E0049B9F
:109840005A68049B1B899B0013440393009B9B7DD8
:10985000062B4DD801A252F823F000BF9F980200BA
:10986000C3980200AB980200B798020079980200F2
:10987000CF980200E9980200264B00225A60009B14
:109880009B69244A136024492248FFF7FDFA0346E6
:1098900083F00103DBB2002B01D00A2333E00399EC
:1098A0000098FFF7F1FB059025E003990098FFF77A
:1098B00009FC05901FE003990098FFF7CDFC059087
:1098C00019E003990098FFF723FC059013E0009B33
:1098D00006229A750F4B5B680F4A1288114618468C
:1098E000FFF73CFC059006E041F61D53059302E0AE
:1098F0000F23059300BF059B002B03D0009904980C
:10990000FFF724FA059B184607B05DF804FB00BF7B
:10991000582A0020A02A0020AC2A002000B585B0DB
:1099200001900091019B002B01D0012326E0009BB8
:109930001B79022B19D0022B1BDC002B02D0012B30
:1099400008D016E0009B02221A710098FFF730FC45
:10995000039012E00098FFF75BFC0390039B0A2B37
:109960000AD141F61D53039306E041F61D530393BC
:1099700003E00F23039300E000BF039B184605B0EC
:109980005DF804FB00B585B00190019B002B01D070
:1099900001233BE01F4B1B7B002B03D01D4B002200
:1099A0001A7301E0FFF724FE1A4B1B78013B062BCC
:1099B00028D801A252F823F0D5990200DD990200BF
:1099C000E5990200ED990200059A0200F59902005E
:1099D000FD990200FFF79CFD039016E0FFF754FD90
:1099E000039012E0FFF726FD03900EE0FFF7ECFC7A
:1099F00003900AE0FFF764FD039006E0FFF77AFDAD
:109A0000039002E00F23039300BF039B184605B0A9
:109A10005DF804FB882A002000B589B001903F4B17
:109A20001B68002B05D13E48FFF7F6FA03463B4A78
:109A300013603A4B1B68002B04D13A4940F2825024
:109A400006F08EFA354B1B681B78013B052B2CD892
:109A500001A252F823F000BF719A0200819A02001D
:109A6000819A0200919A0200919A0200A19A020042
:109A70002A4B1B6819460198FFF7F2FD019017E089
:109A8000264B1B6819460198FFF7C2FE01900FE0B4
:109A9000224B1B6819460198FFF740FF019007E031
:109AA0000198FFF76FFF019002E00F23019300BFC1
:109AB000019B002B2BD003AB00221A605A609A60E6
:109AC000DA601A61019B41F61D52934201D0019B5D
:109AD00000E000230493114B1B6803AA11461846AB
:109AE000FFF726F803AB1846FFF702F80B4B0022EE
:109AF0001A60002301930A48FFF79EFAFFF7AAFABB
:109B0000034683F00103DBB2002B02D187E700BFDD
:109B100000E000BF00BF09B05DF804FBB02A0020E0
:109B2000B42A0020E857030000B583B00190019BE0
:109B30005B681846FFF770FF00BF03B05DF804FBD9
:109B400086B001900091019B53E8021F1FFAA1F219
:109B5000D888824202BFBFF32F8F00230DE0D8893F
:109B600002449889824228BF121AC1EA024243E89D
:109B700002200028E8D14FF001038DF80F30059046
:109B800002910492029A009B1A609DF80F30DBB29A
:109B9000184606B0704784B00190019951E8023F21
:109BA000C3EA234341E80232002AF7D10392029329
:109BB00000BF04B0704700B585B001900091009BD4
:109BC00019460198FFF7BCFF0346002B07D0019B05
:109BD0001B68009A528813440393039B00E0002300
:109BE000184605B05DF804FB00B583B00190009104
:109BF000009B1A88009B5B889A4204D10198FFF76A
:109C0000CAFF012300E00023184603B05DF804FBFF
:109C100000B585B001900091009B5B099B00019A03
:109C20001A44009B03F01F03012101FA03F31946B4
:109C3000104600F04DF8039000BF05B05DF804FB3E
:109C400000B585B001900091009B5B099B00019AD3
:109C50001A44009B03F01F03012101FA03F3DB43C5
:109C60001946104600F064F8039000BF05B05DF897
:109C700004FB82B001900091009B5B099B00019A5C
:109C800013441A68009B03F01F0322FA03F303F046
:109C90000103002B14BF01230023DBB2184602B0DE
:109CA000704710B487B001900091019B009A53E86F
:109CB000004F104643E8000191F0000FF7D10594E2
:109CC00004900391059B184607B05DF8044B70475C
:109CD00010B487B001900091019B009A53E8004FA7
:109CE00044EA020043E8000191F0000FF6D1059428
:109CF00004900391049B184607B05DF8044B70472D
:109D000010B487B001900091019B009A53E8004F76
:109D100004EA020043E8000191F0000FF6D1059437
:109D200004900391059B184607B05DF8044B7047FB
:109D300010B487B001900091019B009A53E8004F46
:109D400004EA020043E8000191F0000FF6D1059407
:109D500004900391049B184607B05DF8044B7047CC
:109D600010B487B001900091019B009A53E8004F16
:109D700004EB020043E8000191F0000FF6D10594D6
:109D800004900391049B184607B05DF8044B70479C
:109D900010B487B001900091019B009A53E8004FE6
:109DA000A4EB020043E8000191F0000FF6D1059406
:109DB00004900391049B184607B05DF8044B70476C
:109DC00000B583B0019001210198FFF781FF0346A0
:109DD000184603B05DF804FB00B583B00190002184
:109DE0000198FFF78DFF0346184603B05DF804FBAA
:109DF00000B583B001900B468DF80330019B002B1A
:109E000003D10849E82006F0ABF8019BDA689DF819
:109E100003300199898A01FB03F31344184603B008
:109E20005DF804FB3C58030000B583B0019000913D
:109E3000019B002B03D10849F52006F091F8009B07
:109E4000019AD2689B1A019A928AB3FBF2F3DBB2B1
:109E5000184603B05DF804FB3C58030000B585B01C
:109E60000190019B002B01D10E234CE0019B1B684C
:109E7000002B03D12649FF2006F072F8019B5B6896
:109E8000002B04D122494FF4807006F069F8019B41
:109E90009B68002B04D11E4940F2011006F060F8C7
:109EA000019BDB68002B04D119494FF4817006F047
:109EB00057F8019B9B8A002B04D1154940F20310EF
:109EC00006F04EF8019B9A68019B5B68D31A8DF8E7
:109ED0000F30019B1B68019A52681A6007E0019BD2
:109EE0001A681368591C11609DF80F201A709DF8AC
:109EF0000F305A1E8DF80F20002BF0D1019B1B68EC
:109F000000221A710023184605B05DF804FB00BF5B
:109F10003C58030000B585B00190019B002B04D193
:109F20001F494FF4927006F01BF80023039300239F
:109F30008DF80A300DF10A031846FEF77FFD019BEC
:109F40001B681A68019B5B689A421FD9019B1B68BA
:109F50001A68013A1A601B681B7819460198FFF7C6
:109F600047FF0390019B9A68019B1B681B68D31AEB
:109F70008DF80B30019B1B681B799DF80B209A42D2
:109F800004D9019B1B689DF80B201A719DF80A30BB
:109F90001846FEF769FD039B184605B05DF804FB03
:109FA0003C58030010B584B001900091019B002B38
:109FB00004D1154940F2471005F0D2FF009B002B59
:109FC00004D111494FF4A47005F0CAFF009B03931C
:109FD00000238DF80B300DF10B031846FEF72EFD14
:109FE000019B1B681C68621C1A6003990198FFF7AB
:109FF0001BFF034623709DF80B301846FEF734FD17
:10A0000000BF04B010BD00BF3C58030000B583B0D2
:10A010000190019B002B03D10C49312005F0A0FFDA
:10A02000019B9B68002B0CD0019B5B69019A106916
:10A03000019A1168019A92689847019B00229A60E0
:10A0400000E000BF03B05DF804FB00BF88580300C8
:10A050000EB400B584B00190019B002B03D11849C8
:10A06000422005F07DFF019B5B69002B03D1144961
:10A07000432005F075FF019B1B68002B03D110499D
:10A08000442005F06DFF019B5B68002B03D10C4958
:10A09000452005F065FF059B002B0AD000230393A4
:10A0A00006AB039303AB1A460599019800F0B0F98B
:10A0B00000E000BF04B05DF804EB03B0704700BFE0
:10A0C0008858030000B583B001900B468DF803302B
:10A0D000019B1A68019B9B68581C01998860134476
:10A0E0009DF803201A70019B9A68019B5B689A4255
:10A0F00002D30198FFF78AFF00BF03B05DF804FBAD
:10A1000000B587B00390029101920093002305935C
:10A11000009B03F00103002B24D00BE0029B0133D2
:10A120000293059B013305939DF81330194603985C
:10A13000FFF7C8FF029B1B788DF813309DF8133092
:10A14000002BEBD106E0019B013B019320210398FA
:10A15000FFF7B8FF019A059B9A422ED9019B002B6D
:10A16000F1D12AE0029B002B0BD002980AF05AFD95
:10A17000059006E0019B013B019320210398FFF726
:10A18000A1FF019A059B9A420FD9019B002BF1D1A7
:10A190000BE0029B01330293059B013305939DF86D
:10A1A000133019460398FFF78DFF029B1B788DF83B
:10A1B00013309DF81330002BEBD100BF07B05DF8D2
:10A1C00004FB000000B589B0039002910192009356
:10A1D000029B07930123069307E0079A019BB2FBBA
:10A1E000F3F30793069B01330693079A019B9A4268
:10A1F000F3D2009A069B9A4201D9009B06930B9BCF
:10A2000003F00103002B22D10A9B002B1FD00B9BD4
:10A2100003F00203002B06D0009B002B03D1302358
:10A220008DF8173002E020238DF8173008E00A9BE4
:10A23000013B0A939DF8173019460398FFF742FF38
:10A240000A9B002B03D0069A0A9B9A42EFD3012364
:10A250000793009B012B03D9009B013B009309E06E
:10A26000029A079BB2FBF3F30493049A019B9A4270
:10A2700000D205E0079B019A02FB03F30793E8E78E
:10A28000029A079BB2FBF3F30493049B079A02FB29
:10A2900003F3029AD31A0293154A049B13441B78C2
:10A2A00019460398FFF70EFF079A019BB2FBF3F3E1
:10A2B0000793079B002BE3D10B9B03F00103002BBB
:10A2C00011D00A9B002B0ED006E00A9B013B0A939B
:10A2D00020210398FFF7F6FE0A9B002B03D0069A75
:10A2E0000A9B9A42F1D300BF09B05DF804FB00BF9E
:10A2F0001059030000B589B00590049103920293B0
:10A30000049B002BB8BF5B4206930123079307E031
:10A31000039B069A92FBF3F30693079B0133079383
:10A32000039B069A9A42F3DA029A079B9A4201D952
:10A33000029B07930A9B002B0AD0049B002B04DB93
:10A340000B9B03F00403002B02D00A9B013B0A93F2
:10A350000B9B03F00203002B02D0029B002B16D0B4
:10A360000B9B03F00103002B11D10A9B002B0ED095
:10A3700006E00A9B013B0A9320210598FFF7A2FE05
:10A380000A9B002B03D0079A0A9B9A42F1D3049BA5
:10A39000002B07DA049B5B4204932D210598FFF7FD
:10A3A00091FE08E00B9B03F00403002B03D02B214C
:10A3B0000598FFF787FE0B9B03F00203002B19D0D3
:10A3C0000B9B03F00103002B14D1029B002B11D136
:10A3D0000A9B002B0ED006E00A9B013B0A9330211A
:10A3E0000598FFF76FFE0A9B002B03D0079A0A9B84
:10A3F0009A42F1D304990B9B01930A9B0093029B11
:10A40000039A0598FFF7DEFE00BF09B05DF804FB74
:10A4100000B58FB0059004910392059B002B04D1E9
:10A42000B6494FF49F7005F09BFD059B5B69002BBF
:10A4300004D1B2494FF4A07005F092FD059B1B6852
:10A44000002B04D1AD4940F2411005F089FD059B78
:10A450005B68002B04D1A9494FF4A17005F080FD81
:10A46000049B002B00F09381049B1B788DF8373000
:10A47000049B013304939DF83730002B00F07E815C
:10A480009DF83730252B40F06D8100230A9301237E
:10A490000C93049B1B788DF837309DF83730302BA8
:10A4A0000DD0302B1BDC2B2B11D02D2B17D10A9B61
:10A4B00043F001030A93049B0133049312E00A9BC7
:10A4C00043F002030A93049B013304930AE00A9BBE
:10A4D00043F004030A93049B0133049302E0002336
:10A4E0000C9300BF0C9B002BD3D1002309939DF844
:10A4F00037302A2B0CD1039B1B68191D039A11605E
:10A500001B68099A13440993049B013304931AE0CE
:10A51000049B1B788DF837309DF837302F2B12D9DC
:10A520009DF83730392B0ED8049B01330493099AD8
:10A5300013469B0013445B001A469DF837301344C2
:10A54000303B0993D3E700230B93049B1B788DF8D2
:10A5500037309DF837302E2B1DD1049B01330493E7
:10A56000049B1B788DF837309DF837302F2B12D98C
:10A570009DF83730392B0ED8049B013304930B9A86
:10A5800013469B0013445B001A469DF83730134472
:10A59000303B0B93E4E7049B1B788DF837309DF834
:10A5A00037306C2B03D09DF83730682B07D1049BD4
:10A5B00001330493049B1B788DF83730EFE79DF847
:10A5C0003730252B00F0C480252BC0F2C680782BB5
:10A5D00000F3C380582BC0F2C080583B202B00F200
:10A5E000BC8001A252F823F0D7A602005BA70200AC
:10A5F0005BA702005BA702005BA702005BA702004B
:10A600005BA702005BA702005BA702005BA702003A
:10A610005BA702006DA602008FA602005BA70200E6
:10A620005BA702005BA702005BA702008FA60200E7
:10A630005BA702005BA702005BA702005BA702000A
:10A640005BA702005BA702001DA702005BA7020038
:10A650005BA7020001A702005BA70200B3A60200ED
:10A660005BA702005BA70200D7A60200039B1B6842
:10A67000191D039A11601B680C930C9B8DF81F30F9
:10A680009DF81F3019460598FFF71CFD66E0039BF7
:10A690001B68191D039A11601B680C930A9B019398
:10A6A000099B00930B9B0A220C990598FFF722FE49
:10A6B00054E0039B1B68191D039A11601B680C93DF
:10A6C0000C990A9B0193099B00930B9B0A22059806
:10A6D000FFF778FD42E0039B1B68191D039A116088
:10A6E0001B680C930C990A9B0193099B00930B9B8D
:10A6F00010220598FFF766FD30E000BFC858030040
:10A70000039B1B68191D039A11601B6808930A9B21
:10A71000099A08990598FFF7F3FC1FE0039B1B6853
:10A72000191D039A11601B680C9330210598FFF7DF
:10A73000C9FC78210598FFF7C5FC0C99002301930B
:10A7400008230093082310220598FFF73BFD05E03E
:10A7500025210598FFF7B6FC00E000BF049B0133FC
:10A76000049305E09DF8373019460598FFF7AAFCD9
:10A77000049B1B78002B7FF477AE00E000BF059BA5
:10A780001B7B002B04D00598FFF740FC00E000BFC6
:10A790000FB05DF804FB00BF10B586B005900491C2
:10A7A00003920293059B002B0FD15C4B1B881B046B
:10A7B00043F0010318465A4A5A490E2300930B46A8
:10A7C0005949FCF7B2FB0E23A4E0039B002B0FD1E9
:10A7D000524B1B881B0443F001031846534A51494E
:10A7E0000E2300930B465049FCF79FFB0E2391E08C
:10A7F000059B1B68002B0FD1484B1B881B0443F0A3
:10A80000010318464A4A4749082300930B46464924
:10A81000FCF78BFB08237DE0029B002B0FD13F4B05
:10A820001B881B0443F001031846424A3D49092393
:10A8300000930B463C49FCF778FB09236AE0059B33
:10A840005B685A68029BB3FBF2F102FB01F29B1AB0
:10A85000002B0FD0314B1B881B0443F0010318461B
:10A86000354A3049092300930B462F49FCF75DFB1D
:10A8700009234FE0049800F057F90346002B0FD14D
:10A88000264B1B881B0443F0010318462B4A25491D
:10A89000102300930B462449FCF747FB102339E0B3
:10A8A000039B184600F040F90346002B0FD11B4BC9
:10A8B0001B881B0443F001031846214A1949102341
:10A8C00000930B461849FCF730FB102322E0029A54
:10A8D0000499059800F00EF90346002B0FD10F4B99
:10A8E0001B881B0443F001031846164A0D49102328
:10A8F00000930B460C49FCF718FB10230AE0059B5C
:10A900001B68DC68089B0093029B039A04990598D6
:10A91000A0470346184606B010BD00BF64220020C1
:10A9200030590300D45A030038590300C4590300B6
:10A930006C59030080590300CC590300F8590300F7
:10A94000105A0300345A030010B586B005900491E4
:10A9500003920293059B002B0FD13C4B1B881B04D9
:10A9600043F0010318463A4A3A490E2300930B4636
:10A970003949FCF7DAFA0E2364E0059B1B68002BCB
:10A980000FD1324B1B881B0443F001031846334A96
:10A990003049082300930B462F49FCF7C6FA0823D9
:10A9A00050E0039B002B0FD1284B1B881B0443F066
:10A9B000010318462A4A2749092300930B462649D2
:10A9C000FCF7B3FA09233DE00499059800F0B9F8C3
:10A9D0000346002B0FD11D4B1B881B0443F00103C2
:10A9E0001846204A1B49102300930B461A49FCF7CE
:10A9F0009CFA102326E0059B5B681B68039A02FB08
:10AA000003F31A460499059800F074F80346002BE6
:10AA10000FD10E4B1B881B0443F001031846124A4A
:10AA20000C49102300930B460B49FCF77EFA1023C8
:10AA300008E0059B1B681C69029B039A0499059812
:10AA4000A0470346184606B010BD00BF6422002090
:10AA500030590300E85A0300385903006C590300C9
:10AA6000805903005C5A0300845A030000B585B086
:10AA70000190019B002B03D0019B1B68002B28D168
:10AA80000023039319E0039A13469B0013449B0091
:10AA90001A46154B13440193019B1B68002B09D0E8
:10AAA000019B1B68DB69019898470346002B01D086
:10AAB000012314E0039B013303930C4A0A4BD31A7E
:10AAC0000B4AA2FB03231B09039A9A42DBD3002300
:10AAD00005E0019B1B68DB6901989847034618460F
:10AAE00005B05DF804FB00BF782200208C22002016
:10AAF000CDCCCCCC84B0039002910192039BDB6857
:10AB0000029A9A4209D3029A019B13445A1E039B4C
:10AB10001B699A4201D8012300E0002303F00103DE
:10AB2000DBB2184604B0704782B00190019B03F07D
:10AB30000303002B0CBF01230023DBB2184602B035
:10AB4000704782B001900091019B5B681B685A1EA0
:10AB5000009B1340002B0CBF01230023DBB21846DF
:10AB600002B0704729DF704700BF184628DF7047E2
:10AB700000BF184600B589B001900091019B1B6889
:10AB80009B68002B35D002AB00221A605A609A6095
:10AB9000DA601A615A61009B0393019B9B680793DB
:10ABA000019B1B79002B02D0012B0DD01AE0012351
:10ABB0008DF80830019B1B690493019BDB680593AA
:10ABC000019B5B6906930DE002238DF80830019B21
:10ABD000DB684FF4805202FB03F30493019B5B6933
:10ABE000069300BF019B1B689B6802AA104698470A
:10ABF00000E000BF09B05DF804FB00B587B001902C
:10AC0000019B5A69019B9B69D31AB3F5805F28BFEA
:10AC10004FF4805305930422059BB3FBF2F3012B01
:10AC200038BF01230593019B1A69019B9B6913445B
:10AC30000493019BDB681A46019B9B6913440393B1
:10AC4000059A03990498FFF78DFF0346184607B04D
:10AC50005DF804FB00B583B00190019BDA68019BAD
:10AC60001B6913441846FFF781FF0346184603B0DB
:10AC70005DF804FB08B5034B03491846FEF7B4FF23
:10AC800000BF08BD04230020D02A002008B5084BCF
:10AC900008491846FEF78FFF0346074A1360064B24
:10ACA0001B68002B14BF01230023DBB2184608BD2C
:10ACB00004230020D02A0020CC2A002000B583B035
:10ACC0002A4B1B7A002B0BD1FFF7E0FF034683F0E2
:10ACD0000103DBB2002B03D0244B00225A6042E078
:10ACE000224B02221A72224B1B681B79002B02D0C6
:10ACF000012B07D00DE01E4B1B681846FFF77DFFA8
:10AD0000019009E01A4B1B681846FFF7A3FF01905A
:10AD100002E00323019300BF019B002B03D0019BA2
:10AD2000112B0CD00FE0114B1B7C83F00103DBB225
:10AD3000002B17D00021022000F06EF812E00B4B20
:10AD400001221A720FE00A4B1B6803211846FFF715
:10AD500011FF064B00221A72044B00225A60FFF7C3
:10AD600089FF00E000BF03B05DF804FBB82A0020B3
:10AD7000CC2A002084B001901B4B0022DA60019B9A
:10AD80001B79002B02D0012B19D028E0019B5A69B6
:10AD9000019B9B69D31AB3F5805F28BF4FF48053A2
:10ADA0000393019B9A69039B1A44019B9A61019B3F
:10ADB0009A69019B5B699A420ED1012310E0019BC5
:10ADC0001B695A1C019B1A61019B1A69019B5B69F3
:10ADD0009A4203D1012303E000BF00E000BF00233B
:10ADE000184604B0704700BFB82A002082B0019016
:10ADF000084BDB680133074AD360064BDB68082B3E
:10AE000004D9044B0022DA60012300E00023184635
:10AE100002B07047B82A002000B585B001900091BB
:10AE2000019B022B02D0019B032B48D1274B1B7A9D
:10AE3000022B05D0022B35DC002B42D0012B31E058
:10AE400000238DF80F30019B022B03D0019B032BB5
:10AE500009D011E01E4B1B681846FFF78BFF034615
:10AE60008DF80F3008E01A4B1B681846FFF7BEFF3D
:10AE700003468DF80F3000BF9DF80F30002B10D027
:10AE8000124B00221A72124B1A68019B022B01D13D
:10AE9000002300E00D2319461046FFF76BFEFFF775
:10AEA000E9FE00BF094B5B7C83F00103DBB2002BA2
:10AEB00002D0FFF703FF05E009F0A8F802E000BFA9
:10AEC00000E000BF05B05DF804FB00BFB82A002019
:10AED000CC2A002082B0034600918DF80730064B43
:10AEE00001225A74044B1B7A002B0CBF0123002350
:10AEF000DBB2184602B07047B82A002000B583B014
:10AF0000034600918DF807309DF80730012B03D0E0
:10AF10009DF80730032B0DD1084B00225A749DF881
:10AF20000730012B0CBF01230023DAB2034B1A7444
:10AF3000FFF7C4FE00BF03B05DF804FBB82A002091
:10AF400000B583B001900198FEF788FF03461846CC
:10AF500003B05DF804FB00B58BB001900091019B3C
:10AF60009B8A043B0793009A079B1344DA1C079BB8
:10AF7000B2FBF3F38DF81B300198FEF7CBFF059081
:10AF8000059B002B01D1002338E0059B00221A719C
:10AF9000059B01225A71079B9AB2059BDA80059B9B
:10AFA00009939DF81B30013B0493099B019A1A6099
:10AFB000002308931DE00198FEF7ACFF0390039B6C
:10AFC000002B0ED0059B5B790133DAB2059B5A71D9
:10AFD000099B039A1A60039B019A1A60039B0993C9
:10AFE00004E0059800F00EF8002307E0089B013309
:10AFF0000893089A049B9A42DDD3059B18460BB030
:10B000005DF804FB00B58BB00190019B0793079B93
:10B010005B798DF81B30019B08939DF81B30013B39
:10B0200005930023099305E0089B1B680893099B7F
:10B0300001330993099A059B9A42F5D3089B1B6833
:10B040000493019B0893002309930BE0089B1B6862
:10B05000039308990498FEF7A5FF039B0893099BA7
:10B06000013309939DF81B30099A9A42EED300BF31
:10B0700000BF0BB05DF804FB00B585B00190019BEB
:10B080000393039B043301211846FEF769FE00BFBA
:10B0900005B05DF804FB00B587B00190019B0593F6
:10B0A000059B043301211846FEF772FE0346039305
:10B0B00003AB0493049B1B78002B02D10198FFF78C
:10B0C000A1FF00BF07B05DF804FB000000B58DB024
:10B0D0000390029101920093039B0693069BDB88E9
:10B0E0000593039B0B93009B1A1D059BB2FBF3F387
:10B0F0000A93009B0433059AB3FBF2F2059901FB16
:10B1000002F29B1A0993009A019B1A44059B13446F
:10B11000DA1C059BB2FBF3F38DF81330069B5B79C9
:10B120009DF813209A420AD92849BA2004F018FF42
:10B1300005E00B9B1B680B930A9B013B0A930A9B40
:10B14000002BF6D100230893059A099BD31A079385
:10B15000079A019B934228BF134607932DE09DF861
:10B160003830002B0BD0029A089BD0180B9A099B01
:10B1700013440433079A194609F0D6FC0AE00B9AE7
:10B18000099B1344181D029A089B1344079A1946F9
:10B1900009F0CAFC002309930B9B1B680B93019ACF
:10B1A000079BD31A0193089A079B13440893059AA7
:10B1B000019B934228BF13460793019B002BCED1DE
:10B1C00000BF00BF0DB05DF804FB00BF0C5B0300C7
:10B1D00000B587B005900491039202930023009379
:10B1E000029B039A04990598FFF770FF00BF07B010
:10B1F0005DF804FB00B587B00590049103920293BB
:10B2000001230093029B039A04990598FFF75EFFC0
:10B2100000BF07B05DF804FB82B003468DF807302D
:10B220009DF8073003F01F0206499DF907305B09BE
:10B23000012000FA02F2603341F8232000BF02B07F
:10B24000704700BF00E100E000B583B00190019BB2
:10B25000002B03D10649722004F082FE019B0022DC
:10B260001A60BFF35F8F00BF00BF03B05DF804FB3F
:10B27000BC5B030041DF704700BF184600B585B0D6
:10B2800000238DF803300DF103031846FDF7D6FBBC
:10B29000F1EE103A0193019B0393039B23F09F036C
:10B2A0000293029BE1EE103A00BFBFF35F8F00BF35
:10B2B0002620FFF7B1FF9DF803301846FDF7D4FBB9
:10B2C000039B03F00703002B03D00449762004F00E
:10B2D00047FE00BF05B05DF804FB00BF045C03003F
:10B2E00008B5064B00221A700548FFF7ADFF054967
:10B2F000054800F02FF80023184608BDD82A002082
:10B30000D42A0020545C0300DC2A002000B583B05E
:10B31000FFF7B4FF08F096FE0346002B0ED0FFF7B0
:10B32000A9FF0190019B002B0ED0019B022B0BD09B
:10B33000074940F2591004F013FE05E020BF00BF9A
:10B3400040BF00BF20BF00BF00BF03B05DF804FBDB
:10B35000045C030000B583B001900091019B002BB9
:10B3600003D11049502004F0FBFD009B002B03D1BA
:10B370000C49512004F0F4FD019B009A1A60019BD6
:10B380001B681A68019B5A60019B5A68019B1B68E5
:10B390005B689A4202D1019B00225A6000BF03B051
:10B3A0005DF804FB605C030000B583B00190019B75
:10B3B000002B03D11449632004F0D2FD019B1B68CC
:10B3C000002B03D11049642004F0CAFD019B5B6887
:10B3D000002B14D0019B5B681A46019B1B689B687D
:10B3E00013441A46019B5A60019B5A68019B1B68D3
:10B3F0005B689A4204D1019B00225A6000E000BFC2
:10B4000003B05DF804FB00BF605C030000B585B0CD
:10B410000190019800F00EF80390039B002B01D0DF
:10B42000039B00E0024B184605B05DF804FB00BF2B
:10B43000C45C030086B00190164B0593164B049331
:10B440001FE0049A059BD31ADB10DA0F13445B103C
:10B45000DB00059A13440393039B1B680293029A33
:10B46000019B9A4202D9039B04930AE0029A019B32
:10B470009A4203D2039B0833059302E0039B5B6867
:10B4800004E0059A049B9A42DBD30023184606B0D9
:10B49000704700BFC4600300EC610300BFF34F8F2F
:10B4A00000BF074BDB6803F4E0620549054B13431B
:10B4B000CB60BFF34F8F00BF00BF00BFFCE700BFF2
:10B4C00000ED00E00400FA05024B034A1A6000BFD9
:10B4D000704700BF182300200090D00308B500F08B
:10B4E00027F90346002B0ED04FF080430022C3F80B
:10B4F0000C214FF080430022C3F810214FF080430D
:10B500000022C3F8382500F031F90346002B76D02D
:10B510004FF080537D4AD3F80434C2F820354FF001
:10B5200080537A4AD3F80834C2F824354FF0805358
:10B53000764AD3F80C34C2F828354FF08053734A5A
:10B54000D3F81034C2F82C354FF080536F4AD3F83B
:10B550001434C2F830354FF080536C4AD3F81834A5
:10B56000C2F834354FF08053684AD3F81C34C2F81F
:10B5700040354FF08053654AD3F82034C2F8443543
:10B580004FF08053614AD3F82434C2F848354FF065
:10B5900080535E4AD3F82834C2F84C354FF08053BC
:10B5A0005A4AD3F82C34C2F850354FF08053574ADA
:10B5B000D3F83034C2F854354FF08053534AD3F89F
:10B5C0003434C2F860354FF08053504AD3F83834E1
:10B5D000C2F864354FF080534C4AD3F83C34C2F87B
:10B5E00068354FF08053494AD3F84034C2F86C357F
:10B5F0004FF08053454AD3F84434C2F8703500F018
:10B60000D3F80346002B02D0414B424A1A6000F0A7
:10B61000DDF80346002B03D03F4BFB22C3F818256F
:10B6200000F0E6F80346002B0AD03C4B1B6823F0E1
:10B630000F023B4B1B6803F00F03384913430B60A9
:10B6400000F0E8F80346002B03D0364B4FF40072AD
:10B650001A6000F0F1F80346002B0DD04FF0804344
:10B66000D3F8003403F00103002B05D04FF08043E2
:10B670006FF00102C3F800242B4BD3F888302A4A1C
:10B6800043F47003C2F88830BFF34F8F00BFBFF39D
:10B690006F8F00BF4FF01023D3F80032002B05DB73
:10B6A0004FF01023D3F80432002B2BDA1F4B01226A
:10B6B000C3F8042500BF1D4BD3F80034002BFAD08B
:10B6C0004FF010231222C3F8002200BF174BD3F80B
:10B6D0000034002BFAD04FF010231222C3F80422BA
:10B6E00000BF124BD3F80034002BFAD00F4B0022CE
:10B6F000C3F8042500BF0D4BD3F80034002BFAD05B
:10B70000FFF7CCFEFFF7E0FE00BF08BD00C0004021
:10B710008C5600404881030000F00040E40E0040D9
:10B72000580200104096024000ED00E000E00140A9
:10B730000C4B1B68082B11D10B4B1B68002B01D144
:10B7400001230CE0084B1B68012B01D1012306E00B
:10B75000054B1B68022B01D1012300E00123184691
:10B76000704700BF30010010340100100C4B1B6803
:10B77000082B11D10B4B1B68002B01D101230CE0CE
:10B78000084B1B68012B01D1012306E0054B1B6808
:10B79000022B01D1012300E001231846704700BFAE
:10B7A0003001001034010010064B1B68082B05D136
:10B7B000054B1B68002B01D1012300E00023184634
:10B7C000704700BF3001001034010010064B1B68A9
:10B7D000082B05D1054B1B68002B01D1012300E08C
:10B7E00000231846704700BF3001001034010010DC
:10B7F000064B1B68082B05D1054B1B68002B01D19C
:10B80000012300E000231846704700BF30010010FC
:10B8100034010010064B1B68082B05D1054B1B6833
:10B82000002B01D1012300E000231846704700BF20
:10B8300030010010340100100C4B1B68082B11D193
:10B840000B4B1B68002B01D101230CE0084B1B683C
:10B85000012B01D1012306E0054B1B68022B01D10E
:10B86000012300E001231846704700BF300100109B
:10B870003401001000B583B00190019B1B682F2B91
:10B8800004D90B4940F2C71004F06AFB019B1B6806
:10B890001F2B02D84FF0A04306E0019B1B6803F06A
:10B8A0001F02019B1A60034B184603B05DF804FBAE
:10B8B000EC6103000003005000B585B0019008461C
:10B8C00011461A4603468DF803300B468DF80230B8
:10B8D00013468DF8013001AB1846FFF7CBFF0390FC
:10B8E0009DF803209DF802305B001A439DF801305B
:10B8F0009B001A439DF818301B0242EA03019DF891
:10B900001C301B04019A1943039B02F5E07243F8B3
:10B91000221000BF05B05DF804FB00B585B00390B0
:10B9200000230193002300930023012201210398A7
:10B93000FFF7C2FF00BF05B05DF804FB00B585B09E
:10B9400003900B468DF80B309DF80B3000220192CE
:10B9500000220092002200210398FFF7ADFF00BFF4
:10B9600005B05DF804FB00B585B0019001AB184649
:10B97000FFF780FF0390019B012202FA03F31946AF
:10B98000039800F069F800BF05B05DF804FB00B54E
:10B9900085B0019001AB1846FFF76CFF0390019B47
:10B9A000012202FA03F31946039800F05FF800BF82
:10B9B00005B05DF804FB00B585B0019001AB1846F9
:10B9C000FFF758FF0390039BD3F804350293029BC3
:10B9D000DA43019B012101FA03F31A40039BC3F8E8
:10B9E0000825019B01229A40029B1A40039BC3F841
:10B9F0000C2500BF05B05DF804FB00B583B00190D5
:10BA00000091009B002B03D10198FFF7C0FF02E0DB
:10BA10000198FFF7A8FF00BF03B05DF804FB00B575
:10BA200085B0019001AB1846FFF724FF03900398FF
:10BA300000F00AF80246019B22FA03F303F0010327
:10BA4000184605B05DF804FB82B00190019BD3F865
:10BA50000435184602B0704782B001900091019BF6
:10BA6000009AC3F8082500BF02B0704782B0019069
:10BA70000091019B009AC3F80C2500BF02B07047EB
:10BA800000B585B00190019B032B03D911493A20E1
:10BA900004F066FA104A019B13441B781846FFF71E
:10BAA000BEFF0346002B14BF012300238DF80F3087
:10BAB0009DF80F30002B14BF01230023DBB283F06D
:10BAC0000103DBB203F00103DBB2184605B05DF8F9
:10BAD00004FB00BF1C6203005862030000B583B082
