:020000022000DC
:10600000000004205D620200B5620200B762020077
:10601000B9620200BB620200BD6202000000000023
:10602000000000000000000000000000BF6202004D
:10603000C162020000000000C3620200C5620200EB
:106040000DB00200CB6202009DBD0200CF620200D3
:10605000D1620200D3620200B5BA0200D762020028
:10606000D9620200DB620200DD620200DF62020030
:10607000E1620200E3620200E5620200E762020000
:10608000E9620200AD860200ED620200EF620200EA
:10609000ED860200F3620200910C0300F762020039
:1060A000F9620200FB620200FD620200FF62020070
:1060B0000163020003630200C7620200C7620200BC
:1060C0000563020007630200096302000B6302001C
:1060D0000D6302000F6302001163020013630200EC
:1060E000156302001763020019630200C762020011
:1060F000C76202001D630200C76202001B63020048
:10610000354936480A1A02D0072291438D46344950
:1061100034480A1A06D00722914381F309880222E3
:1061200082F3148830483149314A00F044F831484C
:106130003149324A00F03FF831483249324A00F0E2
:106140003AF832483249334A00F035F83248334998
:10615000334A00F030F833483349344A00F02BF822
:1061600033483449344A00F026F834483449002290
:1061700000F02CF833483449002200F027F8334867
:106180003349091A082902DB002202604160314AC2
:1061900090471F481F49884205D00268043003B465
:1061A000904703BCF7E700208646EC46002000211C
:1061B000294A9047FEE7884207D0521A05D0037853
:1061C00001300B700131013AF9D17047884202D099
:1061D00002700130FAE770470000042000E003205D
:1061E0000000042000000420503703001C2A002077
:1061F000642D002020630200206302007C1B03004A
:10620000503703001C2A00201C2A0020941C030085
:10621000941C0300941C0300941C0300941C0300B2
:10622000941C0300941C0300941C03004F370300CC
:10623000983A0300642D0020642D0020642D002076
:10624000D83E0020D83E0020D83E0020D83E002076
:10625000D85E0020816202006DED02000F484FF011
:106260000701884385460E4880470E48016841F47F
:1062700070010160BFF34F8FBFF36F8FFFF740BF17
:1062800009480A490A4A884207D0521A05D00378B9
:1062900001300B700131013AF9D170470000042040
:1062A0008DA0020088ED00E0581C0300E0290020CA
:1062B0001C2A0020FEE7FEE7FEE7FEE7FEE7FEE71A
:1062C000FEE7FEE7FEE7FEE7FEE7FEE7FEE7FEE7A6
:1062D000FEE7FEE7FEE7FEE7FEE7FEE7FEE7FEE796
:1062E000FEE7FEE7FEE7FEE7FEE7FEE7FEE7FEE786
:1062F000FEE7FEE7FEE7FEE7FEE7FEE7FEE7FEE776
:10630000FEE7FEE7FEE7FEE7FEE7FEE7FEE7FEE765
:10631000FEE7FEE7FEE7FEE7FEE7FEE7FEE700BF7B
:1063200000B585B00190019B002B0AD0074B43F0CC
:1063300001030393019B9B010293039B02989847DF
:1063400000E000BF05B05DF804FB00BFA01C030027
:1063500000B583B00190019B002B0AD04FF47A70F6
:10636000FFF7DEFF019B013B0193019B002BF5D161
:1063700000E000BF03B05DF804FB08B508F074FE50
:1063800000BF08BD00B589B0039002910192019B46
:10639000002B33D00023079303230693029A079B15
:1063A0001344019A1946002008F00EFE0590079A42
:1063B000059B13440793019A059BD31A0193059BF0
:1063C000002B13D10F4B1B7883F00103DBB2002BA2
:1063D00013D10120FFF7BCFF069B013B0693069BF0
:1063E000002B03D1074B00221A7007E0054B012256
:1063F0001A70019B002BD1D100E000BF00BF09B093
:106400005DF804FB642D002000B585B00390029177
:10641000054B00934023054A0299039800F012F8B7
:1064200000BF05B05DF804FB85630200682D002005
:1064300082B0019000BF02B0704782B0019000BFEF
:1064400002B0704700B5A1B0059004910392029389
:10645000049803F0DFFA039B1593029B1693002325
:10646000179300238DF8603000231993229B1A9311
:1064700000231F930FA91F9B0822049803F088FB99
:1064800008231F93119B1293BDF84030ADF84C3098
:10649000BDF84230ADF84E3000238DF851309DF8F4
:1064A0003C3003F00303DBB2012B26D10F9BC3F377
:1064B00095231C939DF83C30C3F3C203DBB28DF8E7
:1064C0005030BDF83C30C3F38313DBB21B931B9BEE
:1064D0009A0009A91F9B049803F05AFB1B9B9B0081
:1064E0001F9A13441F9312AA09A915AB00931346D0
:1064F0001B9A1C9800F016FF2FE09DF83C3003F02B
:106500000303DBB2022B28D1BDF83E30C3F389135D
:106510009BB21E939DF83C30C3F3C203DBB28DF8EF
:1065200050301E9B082B28BF08231D9307A91F9BD3
:106530001D9A049803F02CFB1F9A1D9B13441F9374
:106540001E9A1D9BD31A1E9315AB12AA07A81D995C
:1065500000F08AFF1E9B002BE3D1049803F069FA38
:1065600000BF21B05DF804FB82B00190019B0122C5
:106570005A7200BF02B0704700B583B04FF0FF33CE
:106580000193FFF7FAFE0421084800F0EBFD0190AB
:10659000019B002B03DA0649412007F07BFE0348EC
:1065A000FFF7E2FF00BF03B05DF804FB1C2A0020E8
:1065B000A81C030000B583B001900091019B1B68EB
:1065C0001B6800990198984700BF03B05DF804FB71
:1065D00000B583B00190019B1B685B6801989847E8
:1065E00000BF03B05DF804FB00B583B00190019BD0
:1065F0001B689B680198984700BF03B05DF804FBD7
:1066000082B001900B468DF80330019B9DF803206A
:106610001A7200BF02B0704782B00190019B1B7AD2
:10662000184602B0704782B00190019B01225A7255
:1066300000BF02B0704782B00190019B5B7A1846A0
:1066400002B0704700B587B0019000911D4BFF224A
:106650009A601C4B00221A601A4B00225A60194B98
:106660000022C3F81824174B0022C3F81424154B3A
:10667000002283F82024144803F030F90490049B8E
:10668000002B01D0049B18E0104A114BD31ADB08F1
:106690000393002305930BE0059B9B000D4A1344D5
:1066A0000293059B9AB2029B1A80059B01330593C6
:1066B000059A039B9A42EFD30023184607B05DF872
:1066C00004FB00BF782E0020001C0300001C030008
:1066D000881B0300E0290020024A034BD31ADB0881
:1066E00018467047001C0300881B030000B587B0E4
:1066F00001900B468DF803309DF80330002B1FD01E
:10670000FFF7EAFF04900023059313E0059B9B002D
:106710000E4A13440393039B5B881A46019B1B6834
:106720009A4204D1019B059A1A60002309E0059B57
:1067300001330593059A049B9A42E7D3052300E0B1
:106740000023184607B05DF804FB00BFE0290020D5
:1067500000B585B001900B468DF803309DF80320FD
:1067600001AB11461846FFF7C1FF0346002B07D1C6
:10677000019BDB00054A13440393039B1B6800E065
:106780000023184605B05DF804FB00BF881B03001A
:1067900084B001900B468DF80330019BDB00174A53
:1067A000134402939DF80330013B032B1CD801A234
:1067B00052F823F0C5670200CD670200D5670200DA
:1067C000DF67020002238DF80F3011E004238DF8FB
:1067D0000F300DE0029B1B798DF80F3008E0029B13
:1067E0005B798DF80F3003E000238DF80F3000BF88
:1067F0009DF80F30184604B0704700BF881B030097
:1068000000B585B00190009100238DF80F30019BF9
:106810001B7803F00303DBB2002B06D0019B1B782F
:1068200003F00403DBB2002B43D0019B1B7803F081
:106830000403DBB2002B27D0019B1B78C3F30103B9
:10684000DBB2012B02D0022B0CD017E0009B1B689F
:10685000019A1288C2F38312D2B213449A1C009B8D
:106860001A6023E0009B1B68019A5288C2F38912C8
:1068700092B213449A1C009B1A6017E010494FF41F
:10688000A47007F007FD11E0009B1A68019B5B886C
:10689000C3F389139BB21946019B1B88C3F3891369
:1068A0009BB20B4413445A1C009B1A6001238DF8C1
:1068B0000F309DF80F30184605B05DF804FB00BF9F
:1068C000241D030000B58BB00023ADF826303E48F0
:1068D00002F018FB3D4802F015FB3D4B5B6804934A
:1068E0003B4B9B680693049A069B134002339B0024
:1068F000374A13440433089304AB19460898FFF74A
:106900007FFF0346002B09D0049A069B13400233F5
:106910009B002F4A134404330893EDE700BF002384
:10692000079311E0049B5A1C0492069A1340079A9D
:10693000920001A90A44264902339B000B445B687C
:106940001360079B01330793079B012BEAD99DF83E
:106950000430C3F30103DBB2012B10D0022B1CD196
:10696000BDF80A30ADF82630BDF80630C3F3891300
:106970009BB203339A08049B1344049313E0BDF8BD
:106980000A30ADF82630BDF80430C3F38313DBB210
:106990001A46049B1344049305E00E494FF4C27059
:1069A00007F078FC00BF094802F0B8FA0590059B93
:1069B000002B02D0049B064A5360BDF826301846CF
:1069C0000BB05DF804FB00BF903200208C32002039
:1069D000782E0020241D030000B585B00021074853
:1069E00002F019FA0390039B0293029B83F31003B6
:1069F0000193019B184605B05DF804FB943200201A
:106A000000B589B00390029101920093039B1B0C87
:106A10000793FFF7E1FF0690FFF75EFE0246079B34
:106A2000934204D3214940F2A91007F033FC069B9E
:106A30001904009B5A1C0A9B1340079A0A431C49DD
:106A400002339B000B445A60009A0A9B13400233A6
:106A50009B00174A134404330593039B03F0070379
:106A6000D9B2059A137861F3C5031370019B03F043
:106A70000F03D9B2059A138861F389131380029B1F
:106A8000C3F31501059A136861F39F231360059AF8
:106A90001378012161F301031370059A13786FF3E2
:106AA0008203137000BF09B05DF804FB241D0300CE
:106AB000782E002000B58DB00390029113468DF81A
:106AC0000730039B02330A9301238DF827300023FC
:106AD0008DF81B300DF11B03184602F04FF9404BA7
:106AE0001A68029B1A603E4B9A683D4B59683C4BB2
:106AF0001B68CB1A134401330B9314E0012139486E
:106B000002F0D0F9FFF7DEFE07900799354802F052
:106B1000C9F9334B9A68324B5968314B1B68CB1A11
:106B2000134401330B930A9A0B9B9A42E6D89DF8C3
:106B30002730002B48D0002305939DF80730002B09
:106B400017D09DF81430012262F301038DF8143040
:106B50009DF8143043F004038DF81430039B03F0C8
:106B60000F03DAB2BDF8143062F38913ADF81430B4
:106B700016E09DF81430022262F301038DF8143000
:106B80009DF8143043F004038DF81430039BC3F3D5
:106B900009039AB2BDF8163062F38F13ADF81630C0
:106BA0000F4B1A680E4B9B68134002339B000C4A34
:106BB000134404330893059A089B1A60084B1A681B
:106BC0000A9B1344064A13609DF81B30184602F0D6
:106BD000EBF89DF8273018460DB05DF804FB00BFB8
:106BE000782E00209432002000B58BB005900491DF
:106BF000039202931F4B9B68079306AB0122194631
:106C00000298FFF757FF0346002B24D0069B023360
:106C100009930023089311E0089B9B00039A1A44F0
:106C2000099B591C099107990B40126811490233BD
:106C30009B000B445A60089B01330893089A029BFF
:106C40009A42E9D3069A079B00931346029A049945
:106C50000598FFF7D5FE074B93F82034002B05D09D
:106C600000BF00F081F80346002BFAD100BF0BB043
:106C70005DF804FB782E002000B583B001900091F0
:106C80000023002200990198FFF7AEFF00BF03B078
:106C90005DF804FB00B587B0039002910192019B5F
:106CA000059305AA012302990398FFF79DFF00BFF2
:106CB00007B05DF804FB00B587B003900291019224
:106CC0000093019B0493009B059304AA022302995D
:106CD0000398FFF789FF00BF07B05DF804FB00B51C
:106CE0008BB00390029101920093019B0593009B4E
:106CF00006930C9B07930D9B08930E9B099305AA83
:106D0000052302990398FFF76FFF00BF0BB05DF8F2
:106D100004FB00B58BB00390029101920093019B9C
:106D20000493009B05930C9B06930D9B07930E9B6E
:106D300008930F9B099304AA062302990398FFF76F
:106D400053FF00BF0BB05DF804FB0000054B5A6811
:106D5000044B1B689A420CBF01230023DBB2184688
:106D6000704700BF782E002000B599B0FFF7EEFF06
:106D70000346002B01D00023B6E1994B0022C3F853
:106D80001824BFF34F8F00BF954B5B680493944B5F
:106D90009B681093049A109B134002339B00904A07
:106DA00013440433129300231793002316930023F4
:106DB0000F9304AB19461298FFF722FD0346002BF0
:106DC00014D0874B1A68049B9A4205D8844B1B68E1
:106DD000834A5360002387E1049A109B13400233D7
:106DE0009B007F4A134404331293E2E700BF002361
:106DF000159311E0049B5A1C0492109A1340159AA3
:106E0000920001A90A44764902339B000B445B6857
:106E10001360159B01331593159B012BEAD99DF83F
:106E2000043003F00303DBB2022B40F09C80BDF87A
:106E30000630C3F389139BB20D93BDF80630C3F33C
:106E400089139BB2502B28BF50239BB20C930C9BF1
:106E5000C3F309039AB2BDF8063062F38F13ADF89D
:106E600006300C9B08330B939DF80430C3F3C20328
:106E7000DBB20F930B995B4802F03BFD1790179B19
:106E8000002B00F0D180179802F0C4FD01A9169BD9
:106E90000822179802F06AFE169B08331693049B8B
:106EA000DA43109B134001339B000A930C9A0A9B10
:106EB0009A4242D90A9B002B08D0049A109B134097
:106EC00002339B00464A1344043300E0464B0893C8
:106ED0000A9B002B02D00A9BDBB201E00C9BDBB2C9
:106EE0008DF81F300A9B002B01D03F4B00E00023A0
:106EF00006930A9B002B06D00C9BDAB20A9BDBB2EE
:106F0000D31ADBB200E000238DF817309DF81F2064
:106F1000169B0899179802F029FE9DF81F30169AC3
:106F200013441693069B002B16D09DF81720169B32
:106F30000699179802F01AFE0EE0049A109B13406F
:106F400002339B00264A134404330993169B0C9A80
:106F50000999179802F00AFE0D9B03339A08049BC7
:106F60001344049360E09DF8043003F00303DBB2A4
:106F7000012B59D1BDF80430C3F38313DBB2062BC8
:106F800028BF0623DAB2BDF8043062F38913ADF8E6
:106F90000430BDF80430C3F38313DBB202330E9325
:106FA0009DF80430C3F3C203DBB20F930E9B9B002A
:106FB00019460C4802F09DFC1790179B002B33D00C
:106FC000179802F027FD01A9169B0822179802F0D6
:106FD000CDFD169B08331693002315931BE000BFCD
:106FE000782E0020001C0300842E0020049B5A1CD5
:106FF0000492109A134002339B003D4A1344191D1A
:10700000169B0422179802F0B1FD169B04331693C9
:10701000159B01331593BDF80430C3F38313DBB222
:107020001A46159B9342E1D3179B002B3FD0304B60
:10703000D3F8103414932E4BD3F81834002B1AD0F5
:10704000179802F0F6FC49E000238DF84F301498B1
:10705000FFF7F1FA0346002B02D001238DF84F30E1
:107060009DF84F30002B03D017991498FFF7A2FA20
:10707000149B5B681493149B002BE5D1179802F0C6
:10708000D8FC00238DF803300DF10303184601F0FE
:1070900075FE174BD3F81834002B02D1049B144A09
:1070A00053609DF80330184601F07EFE16E0104B49
:1070B000D3F81034119305E01198FFF795FA119B5E
:1070C0005B681193119B002BF6D10A4B1B881B04A4
:1070D00043F0020308491846FFF7CEFDFFF736FEDE
:1070E000034683F00103DBB2184619B05DF804FBD8
:1070F000782E0020F4290020801D030000B585B003
:107100000023039322E0164BD3F81034029301239B
:107110008DF807300EE00298FFF77EFA03461A4614
:10712000039B934203D100238DF8073005E0029BB7
:107130005B680293029B002BEDD19DF80730002B7A
:1071400001D0039B07E0039B01330393039B092BAF
:10715000D9DD4FF0FF33184605B05DF804FB00BFE2
:10716000782E002000B585B001900B468DF80330D5
:10717000FFF7C4FF0390039BB3F1FF3F01D1039BD3
:107180001EE0039BDBB219460198FFF739FA0E4B5C
:10719000D3F81034002B07D10B4A019BC2F81034EE
:1071A000019B00225A600AE0074BD3F810345A685A
:1071B000019B5A60044BD3F81034019A5A60039B28
:1071C000184605B05DF804FB782E002000B583B0AA
:1071D0000C4BD3F8103401930A4B012283F820247E
:1071E00008E00198FFF71FFA0198FFF7F1F9019BFA
:1071F0005B680193019B002BF3D100BF00BF03B07C
:107200005DF804FB782E002082B00190009100BF51
:1072100002B0704710B584B003900291039BDB88E5
:10722000002B0AD0039BDB881A461F4B00931346A2
:107230001E4A1F49029801F0ADFF039B1B7A052BE4
:107240002ED0039B5B7A002B12D0039B9B881A469F
:10725000039B1B7A19461046FFF79AFA03461A4613
:10726000144B53F822301A461349029801F092FF4A
:10727000039B1B6819460298FFF7C6FF039B1B7A06
:107280001A460E4B53F82240039B9B880021184658
:10729000FFF75EFA034622460949029801F07AFF99
:1072A00000BF04B010BD00BFB41D0300C41D030027
:1072B000FC1D03003C2A0020141E0300282A002085
:1072C000181E030000B585B00390029113468DF897
:1072D0000730039B1B7A052B0FD0039B5B7A002B97
:1072E00006D00D4B1B681A460C49029801F052FF5C
:1072F0000B49029801F04EFF07E09DF80730002B84
:1073000003D00749029801F045FF029801F020FFE1
:1073100000BF05B05DF804FB3C2A0020141E0300EA
:10732000241E030030B58BB007900691059204939C
:107330000E9B1B7B8DF827300E9B00221A730E9933
:107340000498FFF767FF059B062B7FD801A252F830
:1073500023F000BF717302007B7302008B73020085
:107360009F730200BD730200E573020015740200F2
:1073700007990E9801F00EFF69E0069B1B681A46FC
:1073800007990E9801F006FF61E0069B1A68069BBC
:1073900004331B6807990E9801F0FCFE57E0069B2A
:1073A0001A68069B04331968069B08331B68009310
:1073B0000B4607990E9801F0EDFE48E0069B196810
:1073C000069B04331868069B08331B68069A0C3228
:1073D00012680192009303460A4607990E9801F03D
:1073E000D9FE34E0069B1868069B04331C68069B94
:1073F00008331B68069A0C32126806991031096826
:107400000291019200932346024607990E9801F0DB
:10741000C1FE1CE0069B1C68069B04331D68069B8E
:1074200008331B68069A0C321268069910310968F5
:1074300006981430006803900291019200932B4645
:10744000224607990E9801F0A5FE00E000BF002239
:107450000E990498FFF736FF0E9B9DF827201A73AC
:1074600000BF0BB030BD00BF00B587B003900291E4
:1074700001920093029B082B5CD8009B1B7B8DF82C
:107480001330009B00221A7300990198FFF7C2FE87
:107490000023059314E0059A029B9A4209D2039AAD
:1074A000059B13441B781A462449009801F072FE8C
:1074B00003E02349009801F06DFE059B013305931D
:1074C000059B072BE7D91F49009801F063FE0023B5
:1074D000059322E0059A029B9A4217D2039A059BD4
:1074E00013441B788DF812309DF81230184609F0BD
:1074F00011FF0346002B02D09DF8123000E02E232E
:107500001A461149009801F045FE03E00F49009822
:1075100001F040FE059B01330593059B072BD9D94C
:10752000012200990198FFF7CDFE009B9DF81320E2
:107530001A7300E000BF07B05DF804FB281E0300CB
:10754000301E0300341E0300381E03003C1E0300DF
:107550002DE9F04F91B0099000238DF83F30A6E05F
:10756000594B1A689DF83F30DB0013440E930E9B75
:107570001B781C464FF001024FF00003A4F12001DC
:10758000C4F1200003FA04FB02FA01F14BEA010BFB
:1075900022FA00F04BEA000B02FA04FACDE90CAB38
:1075A0004A4BD3E90001DDE90C2300EA0204009410
:1075B0000B400193DDE90034234373D0DDE90C2354
:1075C000D1430291DB430393404BD3E90023DDE930
:1075D000024521461140049129460B4005933B4B3F
:1075E000DDE90412C3E900120E9B1B78184604F073
:1075F00047FA03468DF82F300E9B1B781C464FF040
:1076000001024FF00003A4F12001C4F1200003FAAD
:1076100004F702FA01F10F4322FA00F0074302FADD
:1076200004F62B4BD3E9002306EA020106913B4006
:1076300007939DF82F004FF000010E9B1B781C460E
:10764000A4F12003C4F1200201FA04F900FA03F3C3
:1076500049EA030920FA02F249EA020900FA04F8A9
:10766000DDE906344C4508BF43451BD19DF82F206A
:107670000E9B5B78012B0CBF01230023DBB29A42E7
:107680000CBF01230023DBB20A930E9B5B68002B27
:1076900008D00E9B5C680E9B1A780A9BDBB21946D9
:1076A0001046A0479DF83F3001338DF83F30094B1D
:1076B0001A789DF83F309342FFF452AF00BF00BFED
:1076C00011B0BDE8F08F00BF9C320020D032002006
:1076D000C8320020A03200202DE9704F90B00B90EE
:1076E0000B468DF82B304FF001024FF000030B9E3C
:1076F000A6F12001C6F1200003FA06F502FA01F115
:107700000D4322FA00F0054302FA06F4CDE90E45D6
:10771000384B184601F086F80D900D9B002B64D174
:10772000354BD3E90001DDE90E2300EA02040094A1
:107730000B400193DDE90034234341D10B9804F061
:107740009FF90346002B0FD02C4BD3E90001DDE954
:107750000E2340EA020402940B430393274BDDE916
:107760000212C3E9001213E0DDE90E236FEA020AF8
:107770006FEA030B214BD3E900230AEA02010491CB
:107780000BEA030305931D4BDDE90412C3E9001264
:10779000194BD3E90001DDE90E2340EA0204069407
:1077A0000B430793144BDDE90612C3E9001211489D
:1077B000134B1B680022194601F002F80D9015E0EA
:1077C000DDE90E236FEA02086FEA03090A4BD3E9E9
:1077D000002308EA0201089109EA03030993064B12
:1077E000DDE90812C3E9001200E000BF10B0BDE8F7
:1077F000708F00BFA8320020D0320020C832002095
:10780000A432002000B58BB003900B4601928DF896
:107810000B30019B042B01D807235AE004F022F817
:10782000034683F00103DBB2002B09D003F0C8FF4D
:107830000990099B0893089B002B01D0089B48E006
:10784000264A039B1360264A9DF80B301370254A85
:10785000019B136024494FF000024FF00003C1E97F
:10786000002322494FF000024FF00003C1E900233A
:1078700022E09DF80B30DB00039A1344079305AB1D
:1078800000210A461A800A469A7003238DF81430A4
:10789000079B9B788DF81530079B1B78184605AB26
:1078A000134A194603F0EAFF0990099B0693069BC9
:1078B000002B01D0069B0CE09DF80B305A1E8DF872
:1078C0000B20002BD5D10B4A00210B4800F048FFBC
:1078D000034618460BB05DF804FB00BF9C32002045
:1078E000A0320020A4320020C8320020D032002074
:1078F000D976020051750200401E030000B583B026
:10790000114B1B68002B03D11049BA2006F0C2FCB2
:10791000002301930CE00C4B1A68019BDB0013441D
:107920001B780121184604F023F8019B01330193D1
:10793000074B1B781A46019B9342ECD30023184651
:1079400003B05DF804FB00BF9C320020441E03001E
:10795000A032002086B003900291019201238DF89D
:1079600017309DF81730214A039B13601F4A029B72
:1079700053601E4A019B9360039B44F201029342B1
:1079800013D0039B44F20202934221D1019B174A78
:10799000D360164BDB681B881A46144B9A61134B55
:1079A000DB685B68114AD36112E0019B0F4A1361E7
:1079B0000E4B1B699B680D4A53610C4B1B691B687E
:1079C0000A4A9361094B1B695B68084AD36100BF8F
:1079D00072B600BF00BF9DF81730DBB2002BFAD1A2
:1079E00062B600BF00BF06B0704700BFD8320020AB
:1079F00000B583B002900091019244F201007146FB
:107A00006A4600F003F803B000BD00BF30B58BB08C
:107A100007900691059272B600BFFFF7D7FB00BF33
:107A2000FFF7A2F90346002BFAD1079B44F20202AA
:107A300093422BD0079B44F20202934261D8079BEA
:107A400044F20102934232D0079B44F20102934276
:107A500057D8079B012B05D0079B41F201029342A7
:107A60000AD04EE0344B1B881B0443F0010333491A
:107A70001846FFF701F94FE02F4B1B881B0443F01A
:107A800001032F491846FFF7F7F845E0059B0993D6
:107A9000294B1B881B0443F001031846099B5B68B4
:107AA0001A46099B1B882749FFF705F934E0059B17
:107AB0000893214B1B881B0443F001031D46089BC0
:107AC0009C68089B9B68184602F06AFA03461846B1
:107AD000089B5B681946089B1B68069A02920193F3
:107AE00000910346224618492846FFF7F8F8124B42
:107AF0001B881B0443F0010314491846FFF7BCF828
:107B00000AE00D4B1B881B0443F00103069A104941
:107B10001846FFF7BFF800BF0E4B1B6803F00103C8
:107B2000002B00D000BE059A06990798FFF712FFB8
:107B300000BF0BB030BD00BFF4290020901E030031
:107B4000B01E0300D41E0300F01E0300181F030024
:107B50002C1F0300F0ED00E084B00190019B9B68B6
:107B60000393019BDA68039BD31A184604B070474D
:107B700082B001900B468DF80330019B1A68019B7F
:107B8000DB68019989880B4013449DF803201A7023
:107B9000019BDB685A1C019BDA6000BF02B0704792
:107BA00084B003900B460192ADF80A30039B1A682B
:107BB000039B9968BDF80A300B44039989880B40F0
:107BC00013441A78019B1A7000BF04B0704700B5C7
:107BD00083B001900091009A00210198FFF7E0FF27
:107BE000019B9B685A1C019B9A6000BF03B05DF823
:107BF00004FB84B0039002911346ADF80630029B5B
:107C0000002B01D10E231DE0BDF80630002B07D05C
:107C1000BDF806305A1EBDF806301340002B01D0C7
:107C200009230FE0039B029A1A60BDF80630013B5E
:107C30009AB2039B9A80039B00229A60039B0022C6
:107C4000DA600023184604B0704700B583B0019095
:107C50000B468DF803300198FFF77EFF0246019B2B
:107C60009B889A4207D89DF8033019460198FFF780
:107C70007FFF002300E00423184603B05DF804FBF7
:107C800000B583B0019000910198FFF765FF0346AE
:107C9000002B05D000990198FFF799FF002300E021
:107CA0000523184603B05DF804FB000082B00346CC
:107CB0008DF807309DF8073003F01F0205499DF944
:107CC00007305B09012000FA02F241F8232000BFCF
:107CD00002B0704700E100E082B003468DF8073043
:107CE0009DF8073003F01F0206499DF907305B0934
:107CF000012000FA02F2203341F8232000BF02B035
:107D0000704700BF00E100E082B003468DF8073005
:107D10009DF8073003F01F0206499DF907305B0903
:107D2000012000FA02F2403341F8232000BF02B0E4
:107D3000704700BF00E100E082B003468DF80730D5
:107D40009DF8073003F01F0206499DF907305B09D3
:107D5000012000FA02F2603341F8232000BF02B094
:107D6000704700BF00E100E082B0034600918DF84B
:107D700007309DF90730002B0CDA009BDAB20C4972
:107D80009DF8073003F00F03043B5201D2B20B44BD
:107D90001A7609E0009BDAB206499DF907305201D4
:107DA000D2B20B4483F8002300BF02B0704700BF7B
:107DB00000ED00E000E100E000B585B00190019B1E
:107DC000002B0AD0074B43F001030393019B9B0157
:107DD0000293039B0298984700E000BF05B05DF84E
:107DE00004FB00BF501F030000B583B00190064A9A
:107DF000019BC2F8083507211120FFF7B5FF00BF2E
:107E000003B05DF804FB00BF0010014008B50D4B46
:107E10004FF48032C3F844230A4B4FF48032C3F846
:107E200004231120FFF788FF1120FFF73FFF054BC8
:107E300001221A602F20FFF7BFFF034B01221A70A7
:107E400000BF08BD001001401634002008B5112005
:107E5000FFF742FF0E4B4FF48032C3F848230C4B20
:107E60004FF48032C3F80823094B01225A602F20B7
:107E7000FFF7A2FF064B01229A60064B00221A6010
:107E80002F20FFF799FF044B00221A7000BF08BD96
:107E9000001001400834002016340020024BD3F8B3
:107EA00004351846704700BF0010014082B00190B1
:107EB0000091019A009BD31A23F07F43184602B029
:107EC0007047000082B00190034A019BC2F8403520
:107ED00000BF02B0704700BF0010014086B00190A3
:107EE000284B1B68002B03D1264A019B136045E0F9
:107EF000019B1A68234B1B681B689A4210D8214BC0
:107F00001B681968019B1A681E4B1B688A1A1A6045
:107F10001C4B1A68019BDA611A4A019B13602DE021
:107F2000019B1B680393174B1B680593154B1B683C
:107F3000049309E0049B1B68039AD31A0393049BE0
:107F40000593049BDB690493049B002B04D0049BE2
:107F50001B68039A9A42EDD8049B002B05D0049B22
:107F60001A68039BD21A049B1A60019B039A1A6039
:107F7000019B049ADA61059B019ADA6100BF06B0A1
:107F8000704700BF0434002000B587B001902A4B31
:107F90001B680393284B1B680593059B049308E01B
:107FA000049A019B9A4208D0049B0593049BDB69C9
:107FB0000493049B002BF3D100E000BF049B002B33
:107FC00001D1002333E0059A049B9A4214D11A4B45
:107FD0001B68DB69184A1360174B1B68002B0BD119
:107FE000164B01229A60164B00221A60154B012293
:107FF0001A702F20FFF7E0FE049B1B680293049B7E
:10800000DA69059BDA61059BDB690493049B002B0D
:1080100005D0049B1A68029B1A44049B1A60064B05
:108020001B68039A9A4214BF01230023DBB218464F
:1080300007B05DF804FB00BF0434002000100140CD
:10804000083400201734002008B51120FFF75CFE2B
:1080500000BF08BD08B51420FFF756FE00BF08BDDD
:1080600000B583B00190019B5B69019A926910464B
:10807000984700BF03B05DF804FB000000B585B071
:108080002B4B1B68002B4ED000230193FFF706FFFC
:108090000246284B1B6819461046FFF707FF02905F
:1080A000234B1B6803931DE0039B1B68029A9A42B3
:1080B0001CD3039B1B68029AD31A0293039B1B6871
:1080C000019A13440193039B0093039BDB69039381
:1080D000009B1B7C002B05D0009B00221A7400988B
:1080E000FFF7BEFF039B002BDED100E000BF124B69
:1080F0001A78124B1B789A420CD1104B1B78013323
:10810000DAB20E4B1A700D4B1B78022B02D10B4BBF
:1081100000221A70094B1B781946094A019B42F844
:108120002130FFF797FF00BF05B05DF804FB00BFEB
:1081300004340020083400201434002015340020BA
:108140000C34002082B00190184B1A78184B1B7821
:108150009A4223D0154B1B780133DAB2134B1A70B5
:10816000124B1B78022B02D1104B00221A700F4BBE
:108170001B781A460F4B53F82220019B1A60019B73
:108180001A680D4B1B6813440B4A13600A4B1B689B
:1081900023F07F43084A1360012303E0019B002280
:1081A0001A600023184602B0704700BF1434002044
:1081B000153400200C3400200834002088B00390CF
:1081C000029101920023079338E0204B1B6806932D
:1081D000069B1B68039A9A4206D2069B1A68039B69
:1081E000D21A069B1A602EE0069B1B68039AD31ACC
:1081F0000393069B1B68079A13440793069B002270
:108200001A60124B1B680593069BDB690F4A1360CB
:10821000069BDB68002B11D0029A079B134423F0C6
:108220007F42069B5A60069BDA68069B9A60019B18
:108230001A68069BDA61019B059A1A60034B1B685A
:10824000002BC2D100BF00BF08B07047043400202B
:1082500000B589B0019000238DF81F30664B1B6874
:108260000593AAE0019B002B05D0019B0693069B7A
:10827000DB69019361E0614B1B781A4613465B0092
:108280001344DB005D4A1344043304935B4B1B78B7
:108290000133DAB2594B1A70584B1A78574B9B7806
:1082A0009A4202D1554B00221A70049B5B680693D8
:1082B000049B1B78032B1ED0032B7EDC012B1FD0CD
:1082C000022B7AD1049B5B681846FFF75DFE0346DC
:1082D000002B02D001238DF81F30069B00221A7458
:1082E0006BE0454B1B680393039B00221A74039BAE
:1082F000DB69414A1360404B1B68002BF1D15CE005
:1083000000BF069B1B7C002B00D056E0049B9A68A4
:10831000069B5A60049BDA68069B9A60049B1A6964
:10832000069BDA60049B5A69069B9A61344B1B7862
:10833000002B02D0069B00225A60069B5A68314BE4
:108340001B68D31A23F07F432F4A93420ED8069B13
:108350005B682C4A126811461846FFF7A7FD0246D3
:10836000069B9B681A44069B1A6017E0254B1A6807
:10837000069B5B6819461046FFF798FD0290069B26
:108380009B68029A9A4206D2069B9A68029BD21A6E
:10839000069B1A6002E0069B00221A60069B0022E0
:1083A0005A60069B00229A60069B01221A74069B63
:1083B0000022DA610698FFF791FD019B002B7FF404
:1083C00051AF0E4B1A780D4B5B789A427FF44AAF4F
:1083D0009DF81F30002B04D1074B1B68059A9A4269
:1083E00001D0012300E0002303F00103DBB21846B3
:1083F00009B05DF804FB00BF04340020F83200200F
:108400001734002008340020FEFF7F0010B588B02C
:108410000190274B1B68002B44D0254B1B681B6821
:108420000793FFF73BFD0690224B1B6805930599C8
:108430000698FFF73BFD0346033304931E4B1B785E
:1084400083F00103DBB2002B01D0FFF7DFFC049ABD
:10845000079B934238BF1346059A13440593059B27
:1084600023F07F4305930598FFF72CFDFFF716FDDA
:10847000039006990398FFF719FD0346DC1C069943
:108480000598FFF713FD03469C420DD9FFF706FD43
:1084900003461846FFF716FD2F20FFF78DFCFFF768
:1084A000D3FD01E0FFF7D2FC00BF08B010BD00BF54
:1084B00004340020083400201634002000B587B0B2
:1084C0000023019300238DF81730194B1B68049388
:1084D000184B1B6803936B461846FFF733FE0346A1
:1084E0008DF80B309DF80B30002B08D0009B01AAB3
:1084F00004991846FFF762FE01238DF81730019B9F
:108500001846FFF7A5FE0346002B02D001238DF885
:1085100017309DF81730002B02D00398FFF776FF35
:10852000054B00221A7000BF07B05DF804FB00BFC6
:1085300008340020043400201734002082B00346A1
:108540008DF80730034A9DF80730537000BF02B022
:10855000704700BFF832002084B00190144B5B7864
:1085600001338DF80F30124B9B789DF80F209A4203
:1085700002D100238DF80F300D4B1B789DF80F2092
:108580009A4201D100230FE0019B9DF80F201A7041
:10859000074B5B781A4613465B001344DB00044A22
:1085A000134404330293029B184604B0704700BF83
:1085B000F832002000B589B0039002910192009337
:1085C0000023079300238DF816300DF1160318468B
:1085D00000F0D4FB0DF117031846FFF7BDFF06901E
:1085E000069B002B02D10423079318E0069B01226F
:1085F0001A70069B039A5A60FFF750FC0246069BCE
:108600009A60069B029ADA60069B019A1A61069BA1
:10861000009A5A619DF817301846FFF78FFF9DF8B2
:108620001630184600F0C0FB079B002B01D1FFF766
:1086300011FD079B184609B05DF804FB00B587B033
:1086400001900B468DF803300023059300238DF82D
:108650000E300DF10E03184600F090FB0DF10F03E4
:108660001846FFF779FF0490049B002B02D10423E6
:1086700005930BE0049B9DF803201A70049B019A5C
:108680005A609DF80F301846FFF758FF9DF80E30DE
:10869000184600F089FB059B002B01D1FFF7DAFC9F
:1086A000059B184607B05DF804FB000008B50E4BAB
:1086B0000022C3F840210C4B0022C3F844210A4B8E
:1086C0000022C3F84821084B0022C3F84C21064B76
:1086D0000022C3F80021044B0022C3F80421FFF755
:1086E000CDFC00BF08BD00BF0010014008B5FFF77A
:1086F000E5FE00BF08BD000008B5FFF7A7FB134B60
:1087000000221A70114B00225A70104B0B229A70E3
:108710000F4B00221A600F4B00221A700E4B0022E2
:108720001A701420FFF708FB07211420FFF71CFB29
:108730001420FFF7BBFA0020FFF756FBFFF7AEFB54
:108740000346064A13600023184608BDF83200208D
:108750000434002014340020153400200834002094
:1087600086B003900B4601928DF80B30134B9B782B
:10877000002B01D108231EE0019B002B01D1072310
:1087800019E0039B002B01D1072314E0039B1B6816
:108790001B7C002B01D008230DE0039B1B68059375
:1087A000059B00221A74059B9DF80B205A74059BAB
:1087B000019A5A610023184606B07047F83200202B
:1087C00000B587B0039002910192039B0593144B6F
:1087D0009B78002B01D108231EE0039B002B01D1C5
:1087E000082319E0029B042B01D8072314E0059B02
:1087F0005B69002B01D108230EE0059B5B7C012BFC
:1088000001D1029B00E000230493019B049A02998A
:108810000598FFF7CFFE0346184607B05DF804FB46
:10882000F832002000B585B00190019B03930D4BF9
:108830009B78002B01D1082310E0019B002B03D073
:10884000039B5B69002B01D1082307E0039B0022F7
:108850001A7402210398FFF7F1FE0346184605B08B
:108860005DF804FBF832002000B587B00390029158
:1088700013468DF8073000230593039B1B781A4697
:10888000114B9B5C002B09D0039B04339DF8072000
:108890000299184604F080FC05900FE0039B1B78BA
:1088A0001A46094B9B5C002B08D1039B0C339DF8A7
:1088B00007200299184603F01BFE0590059B1846F9
:1088C00007B05DF804FB00BF8834002000B585B018
:1088D000019000238DF80F30019B1B781A46114B35
:1088E0009B5C002B08D0019B0433184604F0FEFC6F
:1088F00003468DF80F300EE0019B1B781A46094B9A
:108900009B5C002B07D1019B0C33184603F078FECB
:1089100003468DF80F309DF80F30184605B05DF80E
:1089200004FB00BF8834002000B587B0039002919B
:1089300013468DF8073000230593039B1B781A46D6
:10894000114B9B5C002B09D0039B04339DF807203F
:108950000299184604F0E2FC05900FE0039B1B7897
:108960001A46094B9B5C002B08D1039B0C339DF8E6
:1089700007200299184603F09BFE0590059B1846B8
:1089800007B05DF804FB00BF8834002084B001907C
:10899000019B9B680393019BDA68039BD31A1846DB
:1089A00004B0704700B587B001900091019B1B781F
:1089B000022B3BD0022B60DC002B48D0012B5CD17A
:1089C000019B5B681B7819462E48FFF73EF905901E
:1089D000059B002B0AD001238DF80C30059B0493D6
:1089E000294B1B6803AA104698470DE02548FFF75E
:1089F000CDFF0346002B07D000238DF80C30224B0F
:108A00001B6803AA104698471E48FFF7BFFF03469E
:108A10001C4A9288934205D801221C491C48FFF742
:108A200083FF2BE01B4B01221A7027E002238DF8F5
:108A30000C30019BDB680493012214491448FFF7B2
:108A400073FF114B1B6803AA1046984716E01249A2
:108A50001248FFF715F90346002B05D101220E49F4
:108A60000B48FFF701FF09E003238DF80C30064B9C
:108A70001B6803AA1046984700E000BF00BF07B07C
:108A80005DF804FB2434002018340020203400203A
:108A9000602A0020213400201C34002034340020BF
:108AA00030B591B00390029101928DF803303C4AA9
:108AB000019B1360029B002B01D107236DE0029BF9
:108AC0001968029B5B689BB21A463648FFF791F81B
:108AD0000F900F9B0E930E9B002B01D00E9B5CE022
:108AE000029B9968029BDB689BB21A462E48FFF7EF
:108AF00080F80F900F9B0D930D9B002B01D00D9BC9
:108B00004BE02A4B04AC1D460FCD0FC495E80F0077
:108B100084E80F00039B5B690A93039B1B7C002B7B
:108B200014BF01230023DBB28DF824309DF80330FD
:108B30008DF82C30039B5B7C002B01D00E2300E0D2
:108B400000238DF82530039BDB680693039B9B680D
:108B50000793039B1B680593039B5B68049304AB1B
:108B6000134A1946134802F06DF80F900F9B0C93AF
:108B70000C9B002B01D00C9B0FE00F4B00221A70B6
:108B8000039B1B68B3F1FF3F06D001220B49094844
:108B9000FFF7CAFE034600E00023184611B030BDBF
:108BA000183400202434002034340020581F0300DF
:108BB000A5890200602A00202134002020340020F2
:108BC00000B587B00190019B002B03D11449C2204E
:108BD00005F060FB134B1B788DF817300199124894
:108BE000FFF74EF804909DF81730002B12D00D4B74
:108BF00000221A7001220D490D48FFF795FE0390DF
:108C0000039B0293029B002B04D0054ACE210298BD
:108C1000FEF7EEFE049B184607B05DF804FB00BFAC
:108C2000781F030021340020243400202034002049
:108C3000602A002000B585B003468DF807309DF806
:108C4000073019461048FFF700F80390039B002BEC
:108C500015D10E48FFF73AFE034683F00103DBB25D
:108C6000002B0CD00A490848FFF70AF80346002BEE
:108C700005D1012206490548FFF7F6FD0390039B45
:108C8000184605B05DF804FB34340020602A00204B
:108C90001C34002082B0EFF310830093009B0193FB
:108CA00072B600BF019B184602B0704762B600BFA3
:108CB00000BF704700B585B00190FFF7EBFF039050
:108CC000164B9B68002B1BD1144B01229A60144B4E
:108CD000D3F88020134B1340104A1360104B114AF5
:108CE000C3F880200E4BD3F884300C4A53600C4BF1
:108CF0004FF0FF32C3F88420019B00221A7002E07B
:108D0000019B01221A70039B002B01D1FFF7CEFFBC
:108D10000023184605B05DF804FB00BF4434002072
:108D200000E100E0FC06FFBD00B585B003468DF80C
:108D30000730104B9B68002B16D09DF80730002B96
:108D400012D1FFF7A7FF03900B4A0A4B1B68136071
:108D5000094A084B5B685360064B00229A60039BEC
:108D6000002B01D1FFF7A2FF0023184605B05DF8E4
:108D700004FB00BF4434002000E100E000B583B0F4
:108D8000019000F02BF80346012B03D00549432046
:108D900005F080FA0198FFF78DFF00BF03B05DF882
:108DA00004FB00BFC41F030000B583B003468DF869
:108DB000073000F013F80346012B03D00649512079
:108DC00005F068FA9DF807301846FFF7ADFF00BFC1
:108DD00003B05DF804FB00BFC41F030084B0EFF3D1
:108DE00005830193019BC3F308030393039B002BAB
:108DF0000DD1EFF314830093009B0293029B03F0C9
:108E00000103002B0CBF01230023DBB200E0012390
:108E1000184604B0704710B487B001900091019BD0
:108E2000009A53E8004F104643E8000191F0000F0C
:108E3000F7D1059404900391059B184607B05DF89F
:108E4000044B704710B487B001900091019B009AC9
:108E500053E8004F44EA020043E8000191F0000F9C
:108E6000F6D1059404900391049B184607B05DF871
:108E7000044B704710B487B001900091019B009A99
:108E800053E8004F04EA020043E8000191F0000FAC
:108E9000F6D1059404900391059B184607B05DF840
:108EA000044B704710B487B001900091019B009A69
:108EB00053E8004F04EB020043E8000191F0000F7B
:108EC000F6D1059404900391049B184607B05DF811
:108ED000044B704710B487B001900091019B009A39
:108EE00053E8004FA4EB020043E8000191F0000FAB
:108EF000F6D1059404900391049B184607B05DF8E1
:108F0000044B704700B583B0019001210198FFF731
:108F100099FF0346184603B05DF804FB00B583B023
:108F2000019000210198FFF7A5FF0346184603B002
:108F30005DF804FB00B583B001900B468DF803305B
:108F4000019B002B03D10849E82005F0A3F9019B00
:108F5000DA689DF803300199898A01FB03F3134411
:108F6000184603B05DF804FB1420030000B583B07D
:108F700001900091019B002B03D10849F52005F0D9
:108F800089F9009B019AD2689B1A019A928AB3FBD5
:108F9000F2F3DBB2184603B05DF804FB14200300C3
:108FA00000B585B00190019B002B01D10E234CE050
:108FB000019B1B68002B03D12649FF2005F06AF9AD
:108FC000019B5B68002B04D122494FF4807005F0AF
:108FD00061F9019B9B68002B04D11E4940F20110EE
:108FE00005F058F9019BDB68002B04D119494FF4B7
:108FF000817005F04FF9019B9B8A002B04D1154924
:1090000040F2031005F046F9019B9A68019B5B68EA
:10901000D31A8DF80F30019B1B68019A52681A60B1
:1090200007E0019B1A681368591C11609DF80F2016
:109030001A709DF80F305A1E8DF80F20002BF0D1BA
:10904000019B1B6800221A710023184605B05DF8C9
:1090500004FB00BF1420030000B585B00190019B04
:10906000002B04D11F494FF4927005F013F900232F
:10907000039300238DF80A300DF10A031846FFF719
:109080007DFE019B1B681A68019B5B689A421FD991
:10909000019B1B681A68013A1A601B681B78194605
:1090A0000198FFF747FF0390019B9A68019B1B689B
:1090B0001B68D31A8DF80B30019B1B681B799DF838
:1090C0000B209A4204D9019B1B689DF80B201A7152
:1090D0009DF80A301846FFF767FE039B184605B057
:1090E0005DF804FB1420030010B584B001900091DA
:1090F000019B002B04D1154940F2471005F0CAF836
:10910000009B002B04D111494FF4A47005F0C2F864
:10911000009B039300238DF80B300DF10B031846D1
:10912000FFF72CFE019B1B681C68621C1A600399E8
:109130000198FFF71BFF034623709DF80B3018467C
:10914000FFF732FE00BF04B010BD00BF14200300C3
:1091500000B583B00190019B002B03D10C49312055
:1091600005F098F8019B9B68002B0CD0019B5B6974
:10917000019A1069019A1168019A92689847019BB7
:1091800000229A6000E000BF03B05DF804FB00BF5E
:10919000602003000EB400B584B00190019B002B49
:1091A00003D11849422005F075F8019B5B69002B3B
:1091B00003D11449432005F06DF8019B1B68002B77
:1091C00003D11049442005F065F8019B5B68002B32
:1091D00003D10C49452005F05DF8059B002B0AD012
:1091E0000023039306AB039303AB1A46059901983A
:1091F00000F0B0F900E000BF04B05DF804EB03B08C
:10920000704700BF6020030000B583B001900B469B
:109210008DF80330019B1A68019B9B68581C0199CB
:10922000886013449DF803201A70019B9A68019B83
:109230005B689A4202D30198FFF78AFF00BF03B030
:109240005DF804FB00B587B0039002910192009392
:1092500000230593009B03F00103002B24D00BE0B7
:10926000029B01330293059B013305939DF8133054
:1092700019460398FFF7C8FF029B1B788DF813303F
:109280009DF81330002BEBD106E0019B013B0193CD
:1092900020210398FFF7B8FF019A059B9A422ED927
:1092A000019B002BF1D12AE0029B002B0BD00298EE
:1092B00008F017F9059006E0019B013B019320217E
:1092C0000398FFF7A1FF019A059B9A420FD9019BD2
:1092D000002BF1D10BE0029B01330293059B01337C
:1092E00005939DF8133019460398FFF78DFF029BF5
:1092F0001B788DF813309DF81330002BEBD100BF95
:1093000007B05DF804FB000000B589B0039002913E
:1093100001920093029B07930123069307E0079AAB
:10932000019BB2FBF3F30793069B01330693079A65
:10933000019B9A42F3D2009A069B9A4201D9009B64
:1093400006930B9B03F00103002B22D10A9B002BF9
:109350001FD00B9B03F00203002B06D0009B002BB9
:1093600003D130238DF8173002E020238DF8173019
:1093700008E00A9B013B0A939DF8173019460398B1
:10938000FFF742FF0A9B002B03D0069A0A9B9A42E2
:10939000EFD301230793009B012B03D9009B013BD3
:1093A000009309E0029A079BB2FBF3F30493049A3B
:1093B000019B9A4200D205E0079B019A02FB03F34E
:1093C0000793E8E7029A079BB2FBF3F30493049B2D
:1093D000079A02FB03F3029AD31A0293154A049BDD
:1093E00013441B7819460398FFF70EFF079A019B59
:1093F000B2FBF3F30793079B002BE3D10B9B03F026
:109400000103002B11D00A9B002B0ED006E00A9B13
:10941000013B0A9320210398FFF7F6FE0A9B002BDD
:1094200003D0069A0A9B9A42F1D300BF09B05DF8B7
:1094300004FB00BFE820030000B589B0059004914B
:1094400003920293049B002BB8BF5B420693012357
:10945000079307E0039B069A92FBF3F30693079B9F
:1094600001330793039B069A9A42F3DA029A079B09
:109470009A4201D9029B07930A9B002B0AD0049BB6
:10948000002B04DB0B9B03F00403002B02D00A9B90
:10949000013B0A930B9B03F00203002B02D0029BBB
:1094A000002B16D00B9B03F00103002B11D10A9B5C
:1094B000002B0ED006E00A9B013B0A932021059861
:1094C000FFF7A2FE0A9B002B03D0079A0A9B9A4241
:1094D000F1D3049B002B07DA049B5B4204932D21FC
:1094E0000598FFF791FE08E00B9B03F00403002BA7
:1094F00003D02B210598FFF787FE0B9B03F0020397
:10950000002B19D00B9B03F00103002B14D1029BFD
:10951000002B11D10A9B002B0ED006E00A9B013BC9
:109520000A9330210598FFF76FFE0A9B002B03D0AA
:10953000079A0A9B9A42F1D304990B9B01930A9BC9
:109540000093029B039A0598FFF7DEFE00BF09B067
:109550005DF804FB00B58FB0059004910392059B64
:10956000002B04D1B6494FF49F7004F093FE059B85
:109570005B69002B04D1B2494FF4A07004F08AFE5D
:10958000059B1B68002B04D1AD4940F2411004F04B
:1095900081FE059B5B68002B04D1A9494FF4A170A3
:1095A00004F078FE049B002B00F09381049B1B7851
:1095B0008DF83730049B013304939DF83730002B2E
:1095C00000F07E819DF83730252B40F06D8100231F
:1095D0000A9301230C93049B1B788DF837309DF878
:1095E0003730302B0DD0302B1BDC2B2B11D02D2BFB
:1095F00017D10A9B43F001030A93049B01330493A0
:1096000012E00A9B43F002030A93049B0133049384
:109610000AE00A9B43F004030A93049B013304937A
:1096200002E000230C9300BF0C9B002BD3D100233E
:1096300009939DF837302A2B0CD1039B1B68191D09
:10964000039A11601B68099A13440993049B013320
:1096500004931AE0049B1B788DF837309DF837305F
:109660002F2B12D99DF83730392B0ED8049B01339C
:109670000493099A13469B0013445B001A469DF815
:1096800037301344303B0993D3E700230B93049BFB
:109690001B788DF837309DF837302E2B1DD1049B69
:1096A00001330493049B1B788DF837309DF83730D5
:1096B0002F2B12D99DF83730392B0ED8049B01334C
:1096C00004930B9A13469B0013445B001A469DF8C3
:1096D00037301344303B0B93E4E7049B1B788DF841
:1096E00037309DF837306C2B03D09DF83730682B1E
:1096F00007D1049B01330493049B1B788DF837300A
:10970000EFE79DF83730252B00F0C480252BC0F201
:10971000C680782B00F3C380582BC0F2C080583B22
:10972000202B00F2BC8001A252F823F01B9802000B
:109730009F9802009F9802009F9802009F98020045
:109740009F9802009F9802009F9802009F98020035
:109750009F9802009F980200B1970200D3970200E1
:109760009F9802009F9802009F9802009F98020015
:10977000D39702009F9802009F9802009F980200D2
:109780009F9802009F9802009F9802006198020033
:109790009F9802009F980200459802009F9802003F
:1097A000F79702009F9802009F9802001B98020002
:1097B000039B1B68191D039A11601B680C930C9B7B
:1097C0008DF81F309DF81F3019460598FFF71CFDD6
:1097D00066E0039B1B68191D039A11601B680C93BC
:1097E0000A9B0193099B00930B9B0A220C990598F5
:1097F000FFF722FE54E0039B1B68191D039A1160BA
:109800001B680C930C990A9B0193099B00930B9B7B
:109810000A220598FFF778FD42E0039B1B68191D9B
:10982000039A11601B680C930C990A9B0193099B86
:1098300000930B9B10220598FFF766FD30E000BFF8
:10984000A0200300039B1B68191D039A11601B686D
:1098500008930A9B099A08990598FFF7F3FC1FE003
:10986000039B1B68191D039A11601B680C93302120
:109870000598FFF7C9FC78210598FFF7C5FC0C99FE
:109880000023019308230093082310220598FFF773
:109890003BFD05E025210598FFF7B6FC00E000BF81
:1098A000049B0133049305E09DF837301946059871
:1098B000FFF7AAFC049B1B78002B7FF477AE00E037
:1098C00000BF059B1B7B002B04D00598FFF740FCD5
:1098D00000E000BF0FB05DF804FB00BF00B583B02F
:1098E00001900198FFF75CFB0346184603B05DF852
:1098F00004FB00B58BB001900091019B9B8A043B57
:109900000793009A079B1344DA1C079BB2FBF3F3FF
:109910008DF81B300198FFF79FFB0590059B002BEE
:1099200001D1002338E0059B00221A71059B01221A
:109930005A71079B9AB2059BDA80059B09939DF8A3
:109940001B30013B0493099B019A1A600023089382
:109950001DE00198FFF780FB0390039B002B0ED0C6
:10996000059B5B790133DAB2059B5A71099B039A17
:109970001A60039B019A1A60039B099304E00598FF
:1099800000F00EF8002307E0089B01330893089AC3
:10999000049B9A42DDD3059B18460BB05DF804FB8F
:1099A00000B58BB00190019B0793079B5B798DF805
:1099B0001B30019B08939DF81B30013B059300234E
:1099C000099305E0089B1B680893099B01330993E1
:1099D000099A059B9A42F5D3089B1B680493019B47
:1099E0000893002309930BE0089B1B6803930899D5
:1099F0000498FFF779FB039B0893099B01330993B4
:109A00009DF81B30099A9A42EED300BF00BF0BB0FD
:109A10005DF804FB00B585B00190019B0393039BA7
:109A2000043301211846FFF73DFA00BF05B05DF889
:109A300004FB00B587B00190019B0593059B04339F
:109A400001211846FFF746FA0346039303AB04933C
:109A5000049B1B78002B02D10198FFF7A1FF00BFE8
:109A600007B05DF804FB000000B58DB003900291D3
:109A700001920093039B0693069BDB880593039B4F
:109A80000B93009B1A1D059BB2FBF3F30A93009BFB
:109A90000433059AB3FBF2F2059901FB02F29B1A1B
:109AA0000993009A019B1A44059B1344DA1C059BF9
:109AB000B2FBF3F38DF81330069B5B799DF813200E
:109AC0009A420AD92849BA2004F0E4FB05E00B9B2E
:109AD0001B680B930A9B013B0A930A9B002BF6D150
:109AE00000230893059A099BD31A0793079A019BB1
:109AF000934228BF134607932DE09DF83830002B82
:109B00000BD0029A089BD0180B9A099B134404337C
:109B1000079A194607F067FC0AE00B9A099B134461
:109B2000181D029A089B1344079A194607F05BFC1C
:109B3000002309930B9B1B680B93019A079BD31A75
:109B40000193089A079B13440893059A019B93423B
:109B500028BF13460793019B002BCED100BF00BF47
:109B60000DB05DF804FB00BFF820030000B587B01E
:109B7000059004910392029300230093029B039AA1
:109B800004990598FFF770FF00BF07B05DF804FB6C
:109B900000B587B0059004910392029301230093CE
:109BA000029B039A04990598FFF75EFF00BF07B078
:109BB0005DF804FB82B003468DF807309DF807304E
:109BC00003F01F0206499DF907305B09012000FAE6
:109BD00002F2603341F8232000BF02B0704700BF9B
:109BE00000E100E0BFF34F8F00BF074BDB6803F4D9
:109BF000E0620549054B1343CB60BFF34F8F00BFB5
:109C000000BF00BFFCE700BF00ED00E00400FA0564
:109C100000B583B00190019B002B03D10449C420FF
:109C200004F038FB019B5B68184603B05DF804FB49
:109C30005021030000B583B00190019B002B03D19C
:109C40000649722004F026FB019B00221A60BFF334
:109C50005F8F00BF00BF03B05DF804FBA8210300C5
:109C600000B585B00190019B002B03D10A498520E6
:109C700004F010FB01210198FFF7CDF80390BFF32A
:109C80005F8F00BF039B002B0CBF01230023DBB2BF
:109C9000184605B05DF804FBA821030000B583B0A9
:109CA0000190019B002B03D10A49922004F0F2FAA3
:109CB000019B1B68012B03D00649932004F0EAFAAC
:109CC000BFF35F8F00BF019B00221A6000BF03B08B
:109CD0005DF804FBA821030033DF704700BF18467E
:109CE00041DF704700BF18464FF080430122C3F8A0
:109CF0000025BFF34F8F00BF20BF00BFFCE700006F
:109D000000B585B000238DF803300DF1030318462C
:109D1000FFF734F8F1EE103A0193019B0393039B94
:109D200023F09F030293029BE1EE103A00BFBFF3C2
:109D30005F8F00BF2620FFF73DFF9DF803301846D8
:109D4000FFF732F8039B03F00703002B03D004490D
:109D5000762004F09FFA00BF05B05DF804FB00BF59
:109D6000F021030008B5064B00221A700548FFF7E2
:109D700061FF0549054800F0B7F80023184608BD03
:109D80005834002054340020402203005C3400206A
:109D900000B583B0FFF7B4FF06F04CFF0346002B7D
:109DA0000ED0FFF79DFF0190019B002B0ED0019B71
:109DB000022B0BD0074940F2591004F06BFA05E072
:109DC00020BF00BF40BF00BF20BF00BF00BF03B027
:109DD0005DF804FBF021030000B583B00FE02148DB
:109DE000FFF716FF0190019B1B681F4A127810466F
:109DF00098470346002B31D01A4800F09FF81948C5
:109E0000FFF706FF0346002BE9D1FDF7DFF900BF9E
:109E1000FCF7AAFF0346002BFAD1134B1B78032B48
:109E200003D0114B1B78022B02D1FFF7DBFE16E0AB
:109E300006F000FF0346002B0DD0FFF74DFF00900A
:109E4000009B002B07D0009B022B04D0074940F257
:109E50009B1004F01FFAFFF747FF00E000BF03B0BC
:109E60005DF804FB5C34002050340020F021030036
:109E700000B583B003468DF807301748FFF7F0FEB2
:109E8000034683F00103DBB2002B21D19DF807309C
:109E9000042B0ED0114B1B78002B03D00E48FFF77C
:109EA000FDFE16E00E4A9DF8073013700B4B0122A1
:109EB0001A700A4B1B78002B04D10A494FF4E27048
:109EC00004F0E8F9FFF788FF0348FFF7E7FE00E03A
:109ED00000BF03B05DF804FB543400205834002068
:109EE00050340020F021030000B583B001900091B0
:109EF000019B002B03D11049502004F0CBF9009BAB
:109F0000002B03D10C49512004F0C4F9019B009AA5
:109F10001A60019B1B681A68019B5A60019B5A6872
:109F2000019B1B685B689A4202D1019B00225A6028
:109F300000BF03B05DF804FB4C22030000B583B002
:109F40000190019B002B03D11449632004F0A2F976
:109F5000019B1B68002B03D11049642004F09AF97F
:109F6000019B5B68002B14D0019B5B681A46019B28
:109F70001B689B6813441A46019B5A60019B5A68F0
:109F8000019B1B685B689A4204D1019B00225A60C6
:109F900000E000BF03B05DF804FB00BF4C220300EB
:109FA00000B585B00190019800F00EF80390039B76
:109FB000002B01D0039B00E0024B184605B05DF872
:109FC00004FB00BFB022030086B00190164B05933E
:109FD000164B04931FE0049A059BD31ADB10DA0F8B
:109FE00013445B10DB00059A13440393039B1B6827
:109FF0000293029A019B9A4202D9039B04930AE0BE
:10A00000029A019B9A4203D2039B0833059302E014
:10A01000039B5B6804E0059A049B9A42DBD3002310
:10A02000184606B0704700BFB0260300D8270300CB
:10A0300000B583B001900091019BDBB21846FEF79A
:10A04000F9FD019B184603B05DF804FBBFF34F8F89
:10A0500000BF074BDB6803F4E0620549054B13437F
:10A06000CB60BFF34F8F00BF00BF00BFFCE700BF56
:10A0700000ED00E00400FA05024B034A1A6000BF3D
:10A08000704700BF742A00200090D00308B500F08C
:10A0900027F90346002B0ED04FF080430022C3F86F
:10A0A0000C214FF080430022C3F810214FF0804371
:10A0B0000022C3F8382500F031F90346002B76D092
:10A0C0004FF080537D4AD3F80434C2F820354FF066
:10A0D00080537A4AD3F80834C2F824354FF08053BD
:10A0E000764AD3F80C34C2F828354FF08053734ABF
:10A0F000D3F81034C2F82C354FF080536F4AD3F8A0
:10A100001434C2F830354FF080536C4AD3F8183409
:10A11000C2F834354FF08053684AD3F81C34C2F883
:10A1200040354FF08053654AD3F82034C2F84435A7
:10A130004FF08053614AD3F82434C2F848354FF0C9
:10A1400080535E4AD3F82834C2F84C354FF0805320
:10A150005A4AD3F82C34C2F850354FF08053574A3E
:10A16000D3F83034C2F854354FF08053534AD3F803
:10A170003434C2F860354FF08053504AD3F8383445
:10A18000C2F864354FF080534C4AD3F83C34C2F8DF
:10A1900068354FF08053494AD3F84034C2F86C35E3
:10A1A0004FF08053454AD3F84434C2F8703500F07C
:10A1B000D3F80346002B02D0414B424A1A6000F00C
:10A1C000DDF80346002B03D03F4BFB22C3F81825D4
:10A1D00000F0E6F80346002B0AD03C4B1B6823F046
:10A1E0000F023B4B1B6803F00F03384913430B600E
:10A1F00000F0E8F80346002B03D0364B4FF4007212
:10A200001A6000F0F1F80346002B0DD04FF08043A8
:10A21000D3F8003403F00103002B05D04FF0804346
:10A220006FF00102C3F800242B4BD3F888302A4A80
:10A2300043F47003C2F88830BFF34F8F00BFBFF301
:10A240006F8F00BF4FF01023D3F80032002B05DBD7
:10A250004FF01023D3F80432002B2BDA1F4B0122CE
:10A26000C3F8042500BF1D4BD3F80034002BFAD0EF
:10A270004FF010231222C3F8002200BF174BD3F86F
:10A280000034002BFAD04FF010231222C3F804221E
:10A2900000BF124BD3F80034002BFAD00F4B002232
:10A2A000C3F8042500BF0D4BD3F80034002BFAD0BF
:10A2B000FFF7CCFEFFF7E0FE00BF08BD00C0004086
:10A2C0008C5600404881030000F00040E40E00403E
:10A2D000580200104096024000ED00E000E001400E
:10A2E0000C4B1B68082B11D10B4B1B68002B01D1A9
:10A2F00001230CE0084B1B68012B01D1012306E070
:10A30000054B1B68022B01D1012300E001231846F5
:10A31000704700BF30010010340100100C4B1B6867
:10A32000082B11D10B4B1B68002B01D101230CE032
:10A33000084B1B68012B01D1012306E0054B1B686C
:10A34000022B01D1012300E001231846704700BF12
:10A350003001001034010010064B1B68082B05D19A
:10A36000054B1B68002B01D1012300E00023184698
:10A37000704700BF3001001034010010064B1B680D
:10A38000082B05D1054B1B68002B01D1012300E0F0
:10A3900000231846704700BF300100103401001040
:10A3A000064B1B68082B05D1054B1B68002B01D100
:10A3B000012300E000231846704700BF3001001061
:10A3C00034010010064B1B68082B05D1054B1B6898
:10A3D000002B01D1012300E000231846704700BF85
:10A3E00030010010340100100C4B1B68082B11D1F8
:10A3F0000B4B1B68002B01D101230CE0084B1B68A1
:10A40000012B01D1012306E0054B1B68022B01D172
:10A41000012300E001231846704700BF30010010FF
:10A420003401001000B583B00190019B1B682F2BF5
:10A4300004D90B4940F2C71003F02CFF019B1B68A5
:10A440001F2B02D84FF0A04306E0019B1B6803F0CE
:10A450001F02019B1A60034B184603B05DF804FB12
:10A46000D82703000003005000B585B001900846CE
:10A4700011461A4603468DF803300B468DF802301C
:10A4800013468DF8013001AB1846FFF7CBFF039060
:10A490009DF803209DF802305B001A439DF80130BF
:10A4A0009B001A439DF818301B0242EA03019DF8F5
:10A4B0001C301B04019A1943039B02F5E07243F818
:10A4C000221000BF05B05DF804FB00B585B0039015
:10A4D000002301930023009300230122012103980C
:10A4E000FFF7C2FF00BF05B05DF804FB00B585B003
:10A4F00003900B468DF80B309DF80B300022019233
:10A5000000220092002200210398FFF7ADFF00BF58
:10A5100005B05DF804FB00B585B0019001AB1846AD
:10A52000FFF780FF0390019B012202FA03F3194613
:10A53000039800F086F800BF05B05DF804FB00B595
:10A5400085B0019001AB1846FFF76CFF0390019BAB
:10A55000012202FA03F31946039800F07CF800BFC9
:10A5600005B05DF804FB00B585B0019001AB18465D
:10A57000FFF758FF0390039BD3F804350293029B27
:10A58000DA43019B012101FA03F31A40039BC3F84C
:10A590000825019B01229A40029B1A40039BC3F8A5
:10A5A0000C2500BF05B05DF804FB00B583B0019039
:10A5B0000091009B002B03D10198FFF7C0FF02E040
:10A5C0000198FFF7A8FF00BF03B05DF804FB00B5DA
:10A5D00085B0019001AB1846FFF724FF0390039864
:10A5E00000F01FF80246019B22FA03F303F0010377
:10A5F000184605B05DF804FB00B585B0019001ABCD
:10A600001846FFF70FFF0390039800F012F8024678
:10A61000019B22FA03F303F00103184605B05DF82D
:10A6200004FB82B00190019BD3F81035184602B0AC
:10A63000704782B00190019BD3F80435184602B0F0
:10A64000704782B001900091019B009AC3F80825E1
:10A6500000BF02B0704782B001900091019B009A48
:10A66000C3F80C2500BF02B07047000000B585B0EC
:10A670000190019B032B03D911493A2003F00AFEF4
:10A68000104A019B13441B781846FFF7B5FF034699
:10A69000002B14BF012300238DF80F309DF80F30DD
:10A6A000002B14BF01230023DBB283F00103DBB2D4
:10A6B00003F00103DBB2184605B05DF804FB00BFF0
:10A6C000082803004428030000B583B00190019BD3
:10A6D000032B03D90749412003F0DCFD064A019B07
:10A6E00013441B7800211846FFF75FFF00BF03B03B
:10A6F0005DF804FB082803004428030000B583B07C
:10A700000190019B032B03D90749472003F0C2FDA9
:10A71000064A019B13441B7801211846FFF745FFA9
:10A7200000BF03B05DF804FB0828030044280300C1
:10A7300000B583B00023019305E00198FFF7DEFF29
:10A74000019B01330193019B032BF6D900BF00BF8E
:10A7500003B05DF804FB00B583B00023019305E06E
:10A760000198FFF7B1FF019B01330193019B032B7C
:10A77000F6D900BF00BF03B05DF804FB00B583B09D
:10A780000190019B032B03D907495F2003F082FD51
:10A79000064A019B13441B781846FFF7E4FE00BFEE
:10A7A00003B05DF804FB00BF082803004428030041
:10A7B00000B583B00023019309E0094A019B1344CB
:10A7C0001B781846FFF781FE019B01330193019B23
:10A7D000032BF2D9FFF7ACFF00BF03B05DF804FB19
:10A7E0004428030000B585B00190019B032B03D9D9
:10A7F0001149AC2003F04EFD104A019B13441B7815
:10A800001846FFF7E4FE0346002B14BF0123002384
:10A810008DF80F309DF80F30002B14BF012300235B
:10A82000DBB283F00103DBB203F00103DBB21846B5
:10A8300005B05DF804FB00BF0828030048280300AA
:10A8400000B583B0002301930AE0094A019B134439
:10A850001B7803211846FFF749FE019B0133019342
:10A86000019B032BF1D900BF00BF03B05DF804FBCF
:10A870004828030084B001904FF0FF330293002377
:10A8800003930DE00A4A039B13441B781A46019B6D
:10A89000934202D1039B029305E0039B0133039390
:10A8A000039B032BEED9029B184604B0704700BFF0
:10A8B0004828030000B583B00190019B032B03D906
:10A8C0000549CB2003F0E6FC044A019B13441B78A6
:10A8D000184603B05DF804FB08280300482803006D
:10A8E00000B583B00190019B03F00103002B01D060
:10A8F000FFF75EFF019B03F00203002B01D0FFF77F
:10A900009FFF00BF03B05DF804FB000082B0034668
:10A910008DF807309DF8073003F01F0206499DF9B6
:10A9200007305B09012000FA02F2203341F82320AE
:10A9300000BF02B0704700BF00E100E008B506F0BC
:10A9400079F9034683F00103DBB2002B03D10549FB
:10A95000792003F09FFC00F03FFB034B00229A702C
:10A9600000BF08BD542803006434002000B583B044
:10A9700000230193144B1B78002B02D085230193F5
:10A980001CE0114B00229A600F4B00225A600E4BC4
:10A9900000221A610C4B0022DA600C4800F0E2FA47
:10A9A000019006F047F9034683F00103DBB2002B68
:10A9B00001D000F0FDFA044B01221A70019B1846E9
:10A9C00003B05DF804FB00BF64340020A5AA0200B8
:10A9D00084B00190019B1B680393039B002B03D061
:10A9E000039B1A68019B1A60039B184604B07047CA
:10A9F00000B583B0164B1B78002B04D115494FF4DA
:10AA0000847003F047FC124BDB68002B04D1114922
:10AA100040F2091003F03EFC00238DF807300DF1E1
:10AA200007031846FEF7AAF9094BDB68013B084A01
:10AA3000D360074BDB68002B01D1FFF77FFF9DF848
:10AA400007301846FEF7B0F900BF03B05DF804FB0D
:10AA5000643400205428030000B585B003468DF807
:10AA600007309DF80730002B02D10C4B039301E017
:10AA70000B4B03930398FFF7ABFF0290029B002B55
:10AA800006D0029B5B689DF8072010469847F1E7C7
:10AA900000BF00BF05B05DF804FB00BF6C340020B0
:10AAA0007434002000B583B003468DF807309DF85C
:10AAB0000730002B05D10A4B01225A700020FFF706
:10AAC000CBFF9DF80730012B05D1054B01229A7071
:10AAD0000120FFF7C1FF00BF03B05DF804FB00BF1A
:10AAE0006434002000B583B001900091019B002BDD
:10AAF00005D1054B01225A700020FFF7ADFF00BFC2
:10AB000003B05DF804FB00BF6434002000B585B0DD
:10AB1000034600918DF807309DF80730032B29D0AC
:10AB2000032B35DC002B02D0012B04D030E00020B9
:10AB3000FFF7ECFE2DE000238DF80F300DF10F0331
:10AB40001846FEF71BF9154B1B7883F00103DBB2A7
:10AB5000002B01D0FFF70AFF104BDB6801330F4ACF
:10AB6000D3600E4B01229A709DF80F301846FEF705
:10AB70001BF90EE0094B1B78002B04D1084940F269
:10AB8000432003F087FB00F013FAFFF731FF00E0EA
:10AB900000BF00BF05B05DF804FB00BF64340020B7
:10ABA0005428030000B589B001900091009B0793E1
:10ABB000019B1B788DF80C30019B5B680493019B13
:10ABC0001B7A8DF81430019BDB680693074A079BBC
:10ABD00052F823300649079A51F8221003AA10466A
:10ABE000984700BF09B05DF804FB00BF783400202F
:10ABF0008034002000B589B001900091009B07933C
:10AC0000019B1B788DF80C30019B5B680493019BC2
:10AC10009B68DBB28DF81430019BDB680693074A12
:10AC2000079B52F823300649079A51F8221003AACD
:10AC30001046984700BF09B05DF804FB7834002047
:10AC40008034002030B58FB0039002910192039BB5
:10AC50001B780C9326490C9B019A41F82320029BF8
:10AC60001A6924490C9B41F82320029B5B7F1946FB
:10AC7000214A0C9B13440A461A70029B04AC1D46E1
:10AC80000FCD0FC495E80F0084E80F000C9B0893CC
:10AC900000230D93039B1B781A46174B9B5C002BDC
:10ACA0000DD0039B181D019B002B01D0134A00E01F
:10ACB000002204AB194602F009FA0D9014E0039B40
:10ACC0001B781A460C4B9B5C002B0DD1039B03F1A8
:10ACD0000C00019B002B01D0094A00E0002204ABCC
:10ACE000194601F053FB0D900D9B18460FB030BD77
:10ACF000783400208034002088340020A5AB020086
:10AD0000F5AB020082B003468DF807309DF807309E
:10AD100003F01F0205499DF907305B09012000FA85
:10AD200002F241F8232000BF02B0704700E100E0CA
:10AD300082B003468DF807309DF8073003F01F02FC
:10AD400006499DF907305B09012000FA02F26033E1
:10AD500041F8232000BF02B0704700BF00E100E0CF
:10AD600082B0034600918DF807309DF90730002B23
:10AD70000CDA009BDAB20C499DF8073003F00F03A0
:10AD8000043B5201D2B20B441A7609E0009BDAB2BE
:10AD900006499DF907305201D2B20B4483F80023D3
:10ADA00000BF02B0704700BF00ED00E000E100E02E
:10ADB00000B583B003460A468DF8073013468DF878
:10ADC00006309DF80630012B03D99DF80630032B81
:10ADD0000BD99DF80630042B03D99DF80630072BBC
:10ADE00003D908496B2003F055FA9DF806209DF918
:10ADF000073011461846FFF7B3FF00BF03B05DF8F8
:10AE000004FB00BFA028030000B583B003468DF803
:10AE100007309DF907301846FFF78AFF9DF9073084
:10AE20001846FFF76FFF00BF03B05DF804FB00009A
:10AE300082B003468DF807300F4A9DF90730002B8A
:10AE400000DA1F335B115BB252F823209DF9073003
:10AE5000594203F01F0301F01F0158BF4B425BB280
:10AE600022FA03F303F00103002B14BF0123002394
:10AE7000DBB2184602B0704700E100E082B00190FA
:10AE80004FF08042019BC2F8083300BF02B0704708
:10AE900082B003468DF807309DF8073003F18043F8
:10AEA00001221A6000BF02B0704784B00346ADF8BB
:10AEB0000630BDF8063003F1804300221A60BDF869
:10AEC000063003F180431B680393039B00BF04B06B
:10AED000704782B00346ADF80630BDF8063003F186
:10AEE00080431B68002B14BF01230023DBB21846EC
:10AEF00002B0704782B003468DF807309DF80730E6
:10AF00004FF0804203F00303C2F8183500BF02B0CF
:10AF100070474FF08043D3F818341B0C03F0010343
:10AF2000002B14BF01230023DBB21846704700B585
:10AF300083B007238DF807300020FFF779FF034621
:10AF400083F00103DBB2002B08D09DF807301946CF
:10AF50000020FFF72DFF0020FFF756FF00BF03B0D2
:10AF60005DF804FB00B585B00190019B002B03D177
:10AF70000D49A22003F08EF9002303930B4B1B799C
:10AF8000002B02D08523039308E0084A019B13603D
:10AF9000064B01221A71054B00225A71039B184679
:10AFA00005B05DF804FB00BFDC2803008C340020F2
:10AFB00008B5074B1B79002B03D10649BB2003F0D2
:10AFC00069F9FFF7B4FF0120FFF794FF00BF08BD48
:10AFD0008C340020DC28030008B50A4B1B79002BB9
:10AFE00003D10949F22003F055F90C20FFF750FF77
:10AFF00000BFFFF78EFF0346002BFAD100BF00BF52
:10B0000008BD00BF8C340020DC28030008B54FF4D5
:10B010008070FFF75EFF0346002B14D04FF4807062
:10B02000FFF743FF0120FFF729FF114B5B7983F006
:10B030000103DBB2002B06D00D4B01225A710C4BE1
:10B040001B68002098474FF48270FFF742FF0346C9
:10B05000002B0AD04FF48270FFF727FF0220FFF782
:10B060000DFF034B1B680120984700BF08BD00BFC0
:10B070008C34002082B003468DF807309DF80730ED
:10B0800003F01F0205499DF907305B09012000FA12
:10B0900002F241F8232000BF02B0704700E100E057
:10B0A00082B003468DF807309DF8073003F01F0289
:10B0B00006499DF907305B09012000FA02F260336E
:10B0C00041F8232000BF02B0704700BF00E100E05C
:10B0D00082B0034600918DF807309DF90730002BB0
:10B0E0000CDA009BDAB20C499DF8073003F00F032D
:10B0F000043B5201D2B20B441A7609E0009BDAB24B
:10B1000006499DF907305201D2B20B4483F800235F
:10B1100000BF02B0704700BF00ED00E000E100E0BA
:10B1200000B583B003460A468DF8073013468DF804
:10B1300006309DF80630012B03D99DF80630032B0D
:10B140000BD99DF80630042B03D99DF80630072B48
:10B1500003D908496B2003F09DF89DF806209DF95E
:10B16000073011461846FFF7B3FF00BF03B05DF884
:10B1700004FB00BF2429030000B583B003468DF80B
:10B1800007309DF907301846FFF78AFF9DF9073011
:10B190001846FFF76FFF00BF03B05DF804FB00B572
:10B1A00083B00346ADF80630BDF80630184600F00F
:10B1B00026F803461B68012B0CBF01230023DBB2DA
:10B1C000184603B05DF804FB00B585B00346ADF842
:10B1D0000630BDF80630184600F011F803461A464E
:10B1E00000231360BDF80630184600F008F8034647
:10B1F0001B680393039B00BF05B05DF804FB82B09E
:10B200000346ADF80630BDF8063003F1804303F580
:10B21000C043184602B0704782B00190034A019BB8
:10B22000C2F8043300BF02B0704700BF00600040A6
:10B2300082B00190034BD3F80423019B13401846BE
:10B2400002B070470060004082B00190084A019B44
:10B2500003F5A27352F82330054943F00102019B24
:10B2600003F5A27341F8232000BF02B0704700BF6E
:10B270000060004084B00390029113468DF80730BF
:10B28000144A039B03F5A27352F82330114923F4A7
:10B290004F3323F44073039A02F5A27241F822302F
:10B2A0000C4A039B03F5A27352F82320029B1B0256
:10B2B00003F47C519DF807301B0403F440330B4327
:10B2C00004491A43039B03F5A27341F8232000BFEE
:10B2D00004B070470060004082B00190054A019BB5
:10B2E00003F5A27352F823301B0A03F03F031846FC
:10B2F00002B070470060004082B00190064A019B96
:10B3000003F5A27352F823301B0C03F00303DBB2E6
:10B31000184602B0704700BF0060004000B583B01F
:10B320000190019B1B682F2B04D90B4940F2C710D9
:10B3300002F0B0FF019B1B681F2B02D84FF0A04307
:10B3400006E0019B1B6803F01F02019B1A60034B80
:10B35000184603B05DF804FB5829030000030050B1
:10B3600000B585B00190084611461A4603468DF88F
:10B3700003300B468DF8023013468DF8013001ABD7
:10B380001846FFF7CBFF03909DF803209DF802308D
:10B390005B001A439DF801309B001A439DF818305A
:10B3A0001B0242EA03019DF81C301B04019A194359
:10B3B000039B02F5E07243F8221000BF05B05DF870
:10B3C00004FB00B585B003900B468DF80B309DF85B
:10B3D0000B300022019200220092002200210398EB
:10B3E000FFF7BEFF00BF05B05DF804FB00B585B0F8
:10B3F000019001AB1846FFF791FF0390019A039B60
:10B4000002F5E07253F8223023F002030293019A0E
:10B41000039B02F5E072029943F8221000BF05B0C9
:10B420005DF804FB00B585B001900B468DF8033044
:10B4300001AB1846FFF772FF0390019A039B02F5D8
:10B44000E07253F82230019A23F44031039B02F555
:10B45000E07243F82210019A039B02F5E07253F860
:10B4600022309DF8032012041146019A1943039BD0
:10B4700002F5E07243F8221000BF05B05DF804FB4E
:10B4800000B585B0019001AB1846FFF747FF039068
:10B49000039800F020F80246019B22FA03F303F020
:10B4A0000103184605B05DF804FB00B585B00190B6
:10B4B00001AB1846FFF732FF0390019A039B02F598
:10B4C000E07253F822301B0C03F00303DBB2184682
:10B4D00005B05DF804FB82B00190019BD3F81035F4
:10B4E000184602B07047000000B589B00390029181
:10B4F0000192184A05AB92E8030083E80300039A1F
:10B50000029B1344022B04D9134940F2DF2002F0BE
:10B51000C1FE039B079311E0079B9B0008AA1344FD
:10B5200053F80C3C1846FFF7D6FF0246019B1A6001
:10B53000019B04330193079B01330793039A029BFA
:10B540001344079A9A42E7D300BF00BF09B05DF8E1
:10B5500004FB00BF882903005829030084B0019030
:10B560000091009B0393019BDB080293019B03F076
:10B57000070301930122019B02FA03F30399029A44
:10B580000A4412781340184604B0704784B0019002
:10B590000091009B0393019BDB080293019B03F046
:10B5A00007030193039A029B13441B785AB20121AB
:10B5B000019B01FA03F35BB2134359B2039A029B56
:10B5C0001344CAB21A7000BF04B0704782B0019031
:10B5D0000C4A019B1344303393F90030002B09DBF4
:10B5E000084A019B1344303393F90030072B01DCE8
:10B5F000012300E0002303F00103DBB2184602B090
:10B60000704700BF9434002082B00190064A019B2D
:10B610001344303393F90030072BCCBF01230023B0
:10B62000DBB2184602B070479434002082B001901B
:10B63000064A019B1344303393F90030DB43DBB2FD
:10B64000DB09DBB2184602B0704700BF943400201B
:10B6500084B00390029101928DF80330029B59B29D
:10B660000E4A039B134430330A461A700B49029B5F
:10B67000019A41F823209DF8033083F00103DBB2E7
:10B68000002B08D0029B083B039A51B2034A134493
:10B690000A4683F8602000BF04B07047943400204D
:10B6A00082B00190044A019B13443033FF221A7088
:10B6B00000BF02B0704700BF9434002000B583B0D3
:10B6C000019004490198FFF761FF00BF03B05DF8E6
:10B6D00004FB00BFF834002082B00190044A019BB3
:10B6E0001344303393F90030184602B0704700BF5E
:10B6F0009434002082B00190034A019B52F8233019
:10B70000184602B0704700BF9434002000B589B0DD
:10B710000390029113468DF80730FF238DF81F30F8
:10B720009DF80730002B01D0002300E0082305938B
:10B730009DF80730002B01D0082300E00C23049370
:10B74000059B069314E00F4A069B52F82330B3F191
:10B75000FF3F0AD19DF80730029A06990398FFF738
:10B7600077FF069B8DF81F3006E0069B013306939A
:10B77000069A049B9A42E6D39DF91F30184609B0F9
:10B780005DF804FB9434002082B003468DF8073046
:10B790009DF80730094A4FF0FF3142F823109DF819
:10B7A0000730072B07D99DF80730083B034A13449D
:10B7B000FF2283F8602000BF02B07047943400205D
:10B7C00000B583B0254B93F86A30002B03D00823D3
:10B7D0000093009B3EE000238DF8073009E09DF8C0
:10B7E00007301846FFF75CFF9DF8073001338DF8EE
:10B7F00007309DF807302F2BF1D900238DF8073043
:10B8000009E09DF807301846FFF7BEFF9DF80730A6
:10B8100001338DF807309DF807300B2BF1D9062244
:10B8200000210F4805F008FE07210620FFF778FCED
:10B830000620FFF7A1FC4FF4BE70FFF7C5FC4FF0E8
:10B840000040FFF7E9FC054B012283F86A20002342
:10B850000093009B184603B05DF804FB943400206D
:10B86000F8340020044B93F86A30002B14BF0123F6
:10B870000023DBB2184670479434002000B587B02F
:10B88000039002910192039B2F2B04D936494FF468
:10B89000017002F0FFFC002305930398FFF7C6FE3A
:10B8A0000346002B02D00823059357E0029B9B78A8
:10B8B000C3F34003DBB21A4601990398FFF726FF52
:10B8C00003468DF813309DF91330B3F1FF3F43D099
:10B8D000029B9B78C3F38003DBB283F00103DBB2EE
:10B8E000002B13D0029B9B7803F00103DBB2002BEB
:10B8F00003D00398FFF77AFD05E0029B5B781946B9
:10B900000398FFF75EFD0398FFF7D8FE029B9B7834
:10B9100003F00203DBB2002B08D09DF91300029B59
:10B920001B781A460399FFF7A5FC17E09DF9133021
:10B93000083B0E4A134493F96010029B1B789B014D
:10B940005AB29DF91330083B0A4351B2074A1344D7
:10B950000A4683F8602001E004230593059B1846FE
:10B9600007B05DF804FB00BF982903009434002061
:10B9700000B589B001900B468DF80330019B2F2B49
:10B9800004D93D494FF40D7002F084FC0198FFF793
:10B990004DFE0346002B04D1374940F2352002F01A
:10B9A00079FC0198FFF730FE0346002B2FD0019859
:10B9B000FFF792FE0346083B304A134493F9603088
:10B9C0008DF80F309DF80F309B098DF80E309DF8E3
:10B9D0000E30032B0BD10198FFF752FD0346002BCD
:10B9E00001D0032300E002238DF81F3008E09DF80A
:10B9F0000E30012B01D1022300E003238DF81F300C
:10BA00009DF81F3019460198FFF70CFD30E00198B2
:10BA1000FFF7DCFD0346002B2AD00198FFF75CFE00
:10BA200003460693069B9BB240339BB29B00ADF846
:10BA30001630069B1846FFF707FCBDF8163018466F
:10BA4000FFF7C2FB9DF80330002B11D00198FFF7E0
:10BA500043FE03461846FFF74DFE0490049B002B5F
:10BA600006D00122069B02FA03F31846FFF7D4FB27
:10BA700000BF09B05DF804FB98290300943400204E
:10BA800000B583B00190019B2F2B04D9084940F2E7
:10BA9000852002F0FFFB0198FFF7F2FC0346002B24
:10BAA00014BF01230023DBB2184603B05DF804FB8A
:10BAB0009829030000B599B00023149306AB002227
:10BAC0001A605A604FF48073ADF85C30012316930E
:10BAD0000023139321E0BDF85C301846FFF75FFBAD
